{
  "contractName": "NFT",
  "abi": [
    {
      "inputs": [],
      "stateMutability": "nonpayable",
      "type": "constructor"
    },
    {
      "anonymous": false,
      "inputs": [
        {
          "indexed": true,
          "internalType": "address",
          "name": "owner",
          "type": "address"
        },
        {
          "indexed": true,
          "internalType": "address",
          "name": "approved",
          "type": "address"
        },
        {
          "indexed": true,
          "internalType": "uint256",
          "name": "tokenId",
          "type": "uint256"
        }
      ],
      "name": "Approval",
      "type": "event"
    },
    {
      "anonymous": false,
      "inputs": [
        {
          "indexed": true,
          "internalType": "address",
          "name": "owner",
          "type": "address"
        },
        {
          "indexed": true,
          "internalType": "address",
          "name": "operator",
          "type": "address"
        },
        {
          "indexed": false,
          "internalType": "bool",
          "name": "approved",
          "type": "bool"
        }
      ],
      "name": "ApprovalForAll",
      "type": "event"
    },
    {
      "anonymous": false,
      "inputs": [
        {
          "indexed": false,
          "internalType": "uint256",
          "name": "_fromTokenId",
          "type": "uint256"
        },
        {
          "indexed": false,
          "internalType": "uint256",
          "name": "_toTokenId",
          "type": "uint256"
        }
      ],
      "name": "BatchMetadataUpdate",
      "type": "event"
    },
    {
      "anonymous": false,
      "inputs": [
        {
          "indexed": false,
          "internalType": "uint256",
          "name": "_tokenId",
          "type": "uint256"
        }
      ],
      "name": "MetadataUpdate",
      "type": "event"
    },
    {
      "anonymous": false,
      "inputs": [
        {
          "indexed": true,
          "internalType": "address",
          "name": "from",
          "type": "address"
        },
        {
          "indexed": true,
          "internalType": "address",
          "name": "to",
          "type": "address"
        },
        {
          "indexed": true,
          "internalType": "uint256",
          "name": "tokenId",
          "type": "uint256"
        }
      ],
      "name": "Transfer",
      "type": "event"
    },
    {
      "inputs": [
        {
          "internalType": "address",
          "name": "to",
          "type": "address"
        },
        {
          "internalType": "uint256",
          "name": "tokenId",
          "type": "uint256"
        }
      ],
      "name": "approve",
      "outputs": [],
      "stateMutability": "nonpayable",
      "type": "function"
    },
    {
      "inputs": [
        {
          "internalType": "address",
          "name": "owner",
          "type": "address"
        }
      ],
      "name": "balanceOf",
      "outputs": [
        {
          "internalType": "uint256",
          "name": "",
          "type": "uint256"
        }
      ],
      "stateMutability": "view",
      "type": "function",
      "constant": true
    },
    {
      "inputs": [
        {
          "internalType": "uint256",
          "name": "tokenId",
          "type": "uint256"
        }
      ],
      "name": "getApproved",
      "outputs": [
        {
          "internalType": "address",
          "name": "",
          "type": "address"
        }
      ],
      "stateMutability": "view",
      "type": "function",
      "constant": true
    },
    {
      "inputs": [
        {
          "internalType": "address",
          "name": "owner",
          "type": "address"
        },
        {
          "internalType": "address",
          "name": "operator",
          "type": "address"
        }
      ],
      "name": "isApprovedForAll",
      "outputs": [
        {
          "internalType": "bool",
          "name": "",
          "type": "bool"
        }
      ],
      "stateMutability": "view",
      "type": "function",
      "constant": true
    },
    {
      "inputs": [],
      "name": "mintLimit",
      "outputs": [
        {
          "internalType": "uint256",
          "name": "",
          "type": "uint256"
        }
      ],
      "stateMutability": "view",
      "type": "function",
      "constant": true
    },
    {
      "inputs": [],
      "name": "name",
      "outputs": [
        {
          "internalType": "string",
          "name": "",
          "type": "string"
        }
      ],
      "stateMutability": "view",
      "type": "function",
      "constant": true
    },
    {
      "inputs": [
        {
          "internalType": "uint256",
          "name": "tokenId",
          "type": "uint256"
        }
      ],
      "name": "ownerOf",
      "outputs": [
        {
          "internalType": "address",
          "name": "",
          "type": "address"
        }
      ],
      "stateMutability": "view",
      "type": "function",
      "constant": true
    },
    {
      "inputs": [
        {
          "internalType": "address",
          "name": "from",
          "type": "address"
        },
        {
          "internalType": "address",
          "name": "to",
          "type": "address"
        },
        {
          "internalType": "uint256",
          "name": "tokenId",
          "type": "uint256"
        }
      ],
      "name": "safeTransferFrom",
      "outputs": [],
      "stateMutability": "nonpayable",
      "type": "function"
    },
    {
      "inputs": [
        {
          "internalType": "address",
          "name": "from",
          "type": "address"
        },
        {
          "internalType": "address",
          "name": "to",
          "type": "address"
        },
        {
          "internalType": "uint256",
          "name": "tokenId",
          "type": "uint256"
        },
        {
          "internalType": "bytes",
          "name": "data",
          "type": "bytes"
        }
      ],
      "name": "safeTransferFrom",
      "outputs": [],
      "stateMutability": "nonpayable",
      "type": "function"
    },
    {
      "inputs": [
        {
          "internalType": "address",
          "name": "operator",
          "type": "address"
        },
        {
          "internalType": "bool",
          "name": "approved",
          "type": "bool"
        }
      ],
      "name": "setApprovalForAll",
      "outputs": [],
      "stateMutability": "nonpayable",
      "type": "function"
    },
    {
      "inputs": [
        {
          "internalType": "bytes4",
          "name": "interfaceId",
          "type": "bytes4"
        }
      ],
      "name": "supportsInterface",
      "outputs": [
        {
          "internalType": "bool",
          "name": "",
          "type": "bool"
        }
      ],
      "stateMutability": "view",
      "type": "function",
      "constant": true
    },
    {
      "inputs": [],
      "name": "symbol",
      "outputs": [
        {
          "internalType": "string",
          "name": "",
          "type": "string"
        }
      ],
      "stateMutability": "view",
      "type": "function",
      "constant": true
    },
    {
      "inputs": [],
      "name": "tokenId",
      "outputs": [
        {
          "internalType": "uint256",
          "name": "",
          "type": "uint256"
        }
      ],
      "stateMutability": "view",
      "type": "function",
      "constant": true
    },
    {
      "inputs": [
        {
          "internalType": "uint256",
          "name": "tokenId",
          "type": "uint256"
        }
      ],
      "name": "tokenURI",
      "outputs": [
        {
          "internalType": "string",
          "name": "",
          "type": "string"
        }
      ],
      "stateMutability": "view",
      "type": "function",
      "constant": true
    },
    {
      "inputs": [
        {
          "internalType": "address",
          "name": "from",
          "type": "address"
        },
        {
          "internalType": "address",
          "name": "to",
          "type": "address"
        },
        {
          "internalType": "uint256",
          "name": "tokenId",
          "type": "uint256"
        }
      ],
      "name": "transferFrom",
      "outputs": [],
      "stateMutability": "nonpayable",
      "type": "function"
    },
    {
      "inputs": [
        {
          "internalType": "address",
          "name": "_troca",
          "type": "address"
        },
        {
          "internalType": "string",
          "name": "_tokenURI",
          "type": "string"
        }
      ],
      "name": "mint",
      "outputs": [
        {
          "internalType": "uint256",
          "name": "",
          "type": "uint256"
        }
      ],
      "stateMutability": "nonpayable",
      "type": "function"
    }
  ],
  "bytecode": "0x60a060405260006007553480156200001657600080fd5b506040518060400160405280600a81526020017f54726f636120436c7562000000000000000000000000000000000000000000008152506040518060400160405280600381526020017f5452430000000000000000000000000000000000000000000000000000000000815250816000908162000094919062000332565b508060019081620000a6919062000332565b505050600a6080818152505062000419565b600081519050919050565b7f4e487b7100000000000000000000000000000000000000000000000000000000600052604160045260246000fd5b7f4e487b7100000000000000000000000000000000000000000000000000000000600052602260045260246000fd5b600060028204905060018216806200013a57607f821691505b60208210810362000150576200014f620000f2565b5b50919050565b60008190508160005260206000209050919050565b60006020601f8301049050919050565b600082821b905092915050565b600060088302620001ba7fffffffffffffffffffffffffffffffffffffffffffffffffffffffffffffffff826200017b565b620001c686836200017b565b95508019841693508086168417925050509392505050565b6000819050919050565b6000819050919050565b6000620002136200020d6200020784620001de565b620001e8565b620001de565b9050919050565b6000819050919050565b6200022f83620001f2565b620002476200023e826200021a565b84845462000188565b825550505050565b600090565b6200025e6200024f565b6200026b81848462000224565b505050565b5b8181101562000293576200028760008262000254565b60018101905062000271565b5050565b601f821115620002e257620002ac8162000156565b620002b7846200016b565b81016020851015620002c7578190505b620002df620002d6856200016b565b83018262000270565b50505b505050565b600082821c905092915050565b60006200030760001984600802620002e7565b1980831691505092915050565b6000620003228383620002f4565b9150826002028217905092915050565b6200033d82620000b8565b67ffffffffffffffff811115620003595762000358620000c3565b5b62000365825462000121565b6200037282828562000297565b600060209050601f831160018114620003aa576000841562000395578287015190505b620003a1858262000314565b86555062000411565b601f198416620003ba8662000156565b60005b82811015620003e457848901518255600182019150602085019450602081019050620003bd565b8683101562000404578489015162000400601f891682620002f4565b8355505b6001600288020188555050505b505050505050565b608051612e906200043c600039600081816108000152610a690152612e906000f3fe608060405234801561001057600080fd5b50600436106101005760003560e01c806370a0823111610097578063b88d4fde11610066578063b88d4fde146102ad578063c87b56dd146102c9578063d0def521146102f9578063e985e9c51461032957610100565b806370a082311461022557806395d89b4114610255578063996517cf14610273578063a22cb4651461029157610100565b806317d70f7c116100d357806317d70f7c1461019f57806323b872dd146101bd57806342842e0e146101d95780636352211e146101f557610100565b806301ffc9a71461010557806306fdde0314610135578063081812fc14610153578063095ea7b314610183575b600080fd5b61011f600480360381019061011a9190611bc8565b610359565b60405161012c9190611c10565b60405180910390f35b61013d6103ba565b60405161014a9190611cbb565b60405180910390f35b61016d60048036038101906101689190611d13565b61044c565b60405161017a9190611d81565b60405180910390f35b61019d60048036038101906101989190611dc8565b610492565b005b6101a76105a9565b6040516101b49190611e17565b60405180910390f35b6101d760048036038101906101d29190611e32565b6105af565b005b6101f360048036038101906101ee9190611e32565b61060f565b005b61020f600480360381019061020a9190611d13565b61062f565b60405161021c9190611d81565b60405180910390f35b61023f600480360381019061023a9190611e85565b6106b5565b60405161024c9190611e17565b60405180910390f35b61025d61076c565b60405161026a9190611cbb565b60405180910390f35b61027b6107fe565b6040516102889190611e17565b60405180910390f35b6102ab60048036038101906102a69190611ede565b610822565b005b6102c760048036038101906102c29190612053565b610838565b005b6102e360048036038101906102de9190611d13565b61089a565b6040516102f09190611cbb565b60405180910390f35b610313600480360381019061030e9190612177565b6109ac565b6040516103209190611e17565b60405180910390f35b610343600480360381019061033e91906121d3565b610b0c565b6040516103509190611c10565b60405180910390f35b6000634906490660e01b7bffffffffffffffffffffffffffffffffffffffffffffffffffffffff1916827bffffffffffffffffffffffffffffffffffffffffffffffffffffffff191614806103b357506103b282610ba0565b5b9050919050565b6060600080546103c990612242565b80601f01602080910402602001604051908101604052809291908181526020018280546103f590612242565b80156104425780601f1061041757610100808354040283529160200191610442565b820191906000526020600020905b81548152906001019060200180831161042557829003601f168201915b5050505050905090565b600061045782610c82565b6004600083815260200190815260200160002060009054906101000a900473ffffffffffffffffffffffffffffffffffffffff169050919050565b600061049d8261062f565b90508073ffffffffffffffffffffffffffffffffffffffff168373ffffffffffffffffffffffffffffffffffffffff160361050d576040517f08c379a0000000000000000000000000000000000000000000000000000000008152600401610504906122e5565b60405180910390fd5b8073ffffffffffffffffffffffffffffffffffffffff1661052c610ccd565b73ffffffffffffffffffffffffffffffffffffffff16148061055b575061055a81610555610ccd565b610b0c565b5b61059a576040517f08c379a000000000000000000000000000000000000000000000000000000000815260040161059190612377565b60405180910390fd5b6105a48383610cd5565b505050565b60075481565b6105c06105ba610ccd565b82610d8e565b6105ff576040517f08c379a00000000000000000000000000000000000000000000000000000000081526004016105f690612409565b60405180910390fd5b61060a838383610e23565b505050565b61062a83838360405180602001604052806000815250610838565b505050565b60008061063b8361111c565b9050600073ffffffffffffffffffffffffffffffffffffffff168173ffffffffffffffffffffffffffffffffffffffff16036106ac576040517f08c379a00000000000000000000000000000000000000000000000000000000081526004016106a390612475565b60405180910390fd5b80915050919050565b60008073ffffffffffffffffffffffffffffffffffffffff168273ffffffffffffffffffffffffffffffffffffffff1603610725576040517f08c379a000000000000000000000000000000000000000000000000000000000815260040161071c90612507565b60405180910390fd5b600360008373ffffffffffffffffffffffffffffffffffffffff1673ffffffffffffffffffffffffffffffffffffffff168152602001908152602001600020549050919050565b60606001805461077b90612242565b80601f01602080910402602001604051908101604052809291908181526020018280546107a790612242565b80156107f45780601f106107c9576101008083540402835291602001916107f4565b820191906000526020600020905b8154815290600101906020018083116107d757829003601f168201915b5050505050905090565b7f000000000000000000000000000000000000000000000000000000000000000081565b61083461082d610ccd565b8383611159565b5050565b610849610843610ccd565b83610d8e565b610888576040517f08c379a000000000000000000000000000000000000000000000000000000000815260040161087f90612409565b60405180910390fd5b610894848484846112c5565b50505050565b60606108a582610c82565b60006006600084815260200190815260200160002080546108c590612242565b80601f01602080910402602001604051908101604052809291908181526020018280546108f190612242565b801561093e5780601f106109135761010080835404028352916020019161093e565b820191906000526020600020905b81548152906001019060200180831161092157829003601f168201915b50505050509050600061094f611321565b905060008151036109645781925050506109a7565b600082511115610999578082604051602001610981929190612563565b604051602081830303815290604052925050506109a7565b6109a284611338565b925050505b919050565b60008273ffffffffffffffffffffffffffffffffffffffff166308ae4b0c336040518263ffffffff1660e01b81526004016109e79190611d81565b602060405180830381865afa158015610a04573d6000803e3d6000fd5b505050506040513d601f19601f82011682018060405250810190610a28919061259c565b610a67576040517f08c379a0000000000000000000000000000000000000000000000000000000008152600401610a5e90612615565b60405180910390fd5b7f0000000000000000000000000000000000000000000000000000000000000000610a91336106b5565b10610ad1576040517f08c379a0000000000000000000000000000000000000000000000000000000008152600401610ac8906126a7565b60405180910390fd5b60076000815480929190610ae4906126f6565b9190505550610af5336007546113a0565b610b01600754836113be565b600754905092915050565b6000600560008473ffffffffffffffffffffffffffffffffffffffff1673ffffffffffffffffffffffffffffffffffffffff16815260200190815260200160002060008373ffffffffffffffffffffffffffffffffffffffff1673ffffffffffffffffffffffffffffffffffffffff16815260200190815260200160002060009054906101000a900460ff16905092915050565b60007f80ac58cd000000000000000000000000000000000000000000000000000000007bffffffffffffffffffffffffffffffffffffffffffffffffffffffff1916827bffffffffffffffffffffffffffffffffffffffffffffffffffffffff19161480610c6b57507f5b5e139f000000000000000000000000000000000000000000000000000000007bffffffffffffffffffffffffffffffffffffffffffffffffffffffff1916827bffffffffffffffffffffffffffffffffffffffffffffffffffffffff1916145b80610c7b5750610c7a82611462565b5b9050919050565b610c8b816114cc565b610cca576040517f08c379a0000000000000000000000000000000000000000000000000000000008152600401610cc190612475565b60405180910390fd5b50565b600033905090565b816004600083815260200190815260200160002060006101000a81548173ffffffffffffffffffffffffffffffffffffffff021916908373ffffffffffffffffffffffffffffffffffffffff160217905550808273ffffffffffffffffffffffffffffffffffffffff16610d488361062f565b73ffffffffffffffffffffffffffffffffffffffff167f8c5be1e5ebec7d5bd14f71427d1e84f3dd0314c0f7b2291e5b200ac8c7c3b92560405160405180910390a45050565b600080610d9a8361062f565b90508073ffffffffffffffffffffffffffffffffffffffff168473ffffffffffffffffffffffffffffffffffffffff161480610ddc5750610ddb8185610b0c565b5b80610e1a57508373ffffffffffffffffffffffffffffffffffffffff16610e028461044c565b73ffffffffffffffffffffffffffffffffffffffff16145b91505092915050565b8273ffffffffffffffffffffffffffffffffffffffff16610e438261062f565b73ffffffffffffffffffffffffffffffffffffffff1614610e99576040517f08c379a0000000000000000000000000000000000000000000000000000000008152600401610e90906127b0565b60405180910390fd5b600073ffffffffffffffffffffffffffffffffffffffff168273ffffffffffffffffffffffffffffffffffffffff1603610f08576040517f08c379a0000000000000000000000000000000000000000000000000000000008152600401610eff90612842565b60405180910390fd5b610f15838383600161150d565b8273ffffffffffffffffffffffffffffffffffffffff16610f358261062f565b73ffffffffffffffffffffffffffffffffffffffff1614610f8b576040517f08c379a0000000000000000000000000000000000000000000000000000000008152600401610f82906127b0565b60405180910390fd5b6004600082815260200190815260200160002060006101000a81549073ffffffffffffffffffffffffffffffffffffffff02191690556001600360008573ffffffffffffffffffffffffffffffffffffffff1673ffffffffffffffffffffffffffffffffffffffff168152602001908152602001600020600082825403925050819055506001600360008473ffffffffffffffffffffffffffffffffffffffff1673ffffffffffffffffffffffffffffffffffffffff16815260200190815260200160002060008282540192505081905550816002600083815260200190815260200160002060006101000a81548173ffffffffffffffffffffffffffffffffffffffff021916908373ffffffffffffffffffffffffffffffffffffffff160217905550808273ffffffffffffffffffffffffffffffffffffffff168473ffffffffffffffffffffffffffffffffffffffff167fddf252ad1be2c89b69c2b068fc378daa952ba7f163c4a11628f55a4df523b3ef60405160405180910390a46111178383836001611513565b505050565b60006002600083815260200190815260200160002060009054906101000a900473ffffffffffffffffffffffffffffffffffffffff169050919050565b8173ffffffffffffffffffffffffffffffffffffffff168373ffffffffffffffffffffffffffffffffffffffff16036111c7576040517f08c379a00000000000000000000000000000000000000000000000000000000081526004016111be906128ae565b60405180910390fd5b80600560008573ffffffffffffffffffffffffffffffffffffffff1673ffffffffffffffffffffffffffffffffffffffff16815260200190815260200160002060008473ffffffffffffffffffffffffffffffffffffffff1673ffffffffffffffffffffffffffffffffffffffff16815260200190815260200160002060006101000a81548160ff0219169083151502179055508173ffffffffffffffffffffffffffffffffffffffff168373ffffffffffffffffffffffffffffffffffffffff167f17307eab39ab6107e8899845ad3d59bd9653f200f220920489ca2b5937696c31836040516112b89190611c10565b60405180910390a3505050565b6112d0848484610e23565b6112dc84848484611519565b61131b576040517f08c379a000000000000000000000000000000000000000000000000000000000815260040161131290612940565b60405180910390fd5b50505050565b606060405180602001604052806000815250905090565b606061134382610c82565b600061134d611321565b9050600081511161136d5760405180602001604052806000815250611398565b80611377846116a0565b604051602001611388929190612563565b6040516020818303038152906040525b915050919050565b6113ba82826040518060200160405280600081525061176e565b5050565b6113c7826114cc565b611406576040517f08c379a00000000000000000000000000000000000000000000000000000000081526004016113fd906129d2565b60405180910390fd5b806006600084815260200190815260200160002090816114269190612b9e565b507ff8e1a15aba9398e019f0b49df1a4fde98ee17ae345cb5f6b5e2c27f5033e8ce7826040516114569190611e17565b60405180910390a15050565b60007f01ffc9a7000000000000000000000000000000000000000000000000000000007bffffffffffffffffffffffffffffffffffffffffffffffffffffffff1916827bffffffffffffffffffffffffffffffffffffffffffffffffffffffff1916149050919050565b60008073ffffffffffffffffffffffffffffffffffffffff166114ee8361111c565b73ffffffffffffffffffffffffffffffffffffffff1614159050919050565b50505050565b50505050565b600061153a8473ffffffffffffffffffffffffffffffffffffffff166117c9565b15611693578373ffffffffffffffffffffffffffffffffffffffff1663150b7a02611563610ccd565b8786866040518563ffffffff1660e01b81526004016115859493929190612cc5565b6020604051808303816000875af19250505080156115c157506040513d601f19601f820116820180604052508101906115be9190612d26565b60015b611643573d80600081146115f1576040519150601f19603f3d011682016040523d82523d6000602084013e6115f6565b606091505b50600081510361163b576040517f08c379a000000000000000000000000000000000000000000000000000000000815260040161163290612940565b60405180910390fd5b805181602001fd5b63150b7a0260e01b7bffffffffffffffffffffffffffffffffffffffffffffffffffffffff1916817bffffffffffffffffffffffffffffffffffffffffffffffffffffffff191614915050611698565b600190505b949350505050565b6060600060016116af846117ec565b01905060008167ffffffffffffffff8111156116ce576116cd611f28565b5b6040519080825280601f01601f1916602001820160405280156117005781602001600182028036833780820191505090505b509050600082602001820190505b600115611763578080600190039150507f3031323334353637383961626364656600000000000000000000000000000000600a86061a8153600a858161175757611756612d53565b5b0494506000850361170e575b819350505050919050565b611778838361193f565b6117856000848484611519565b6117c4576040517f08c379a00000000000000000000000000000000000000000000000000000000081526004016117bb90612940565b60405180910390fd5b505050565b6000808273ffffffffffffffffffffffffffffffffffffffff163b119050919050565b600080600090507a184f03e93ff9f4daa797ed6e38ed64bf6a1f010000000000000000831061184a577a184f03e93ff9f4daa797ed6e38ed64bf6a1f01000000000000000083816118405761183f612d53565b5b0492506040810190505b6d04ee2d6d415b85acef81000000008310611887576d04ee2d6d415b85acef8100000000838161187d5761187c612d53565b5b0492506020810190505b662386f26fc1000083106118b657662386f26fc1000083816118ac576118ab612d53565b5b0492506010810190505b6305f5e10083106118df576305f5e10083816118d5576118d4612d53565b5b0492506008810190505b61271083106119045761271083816118fa576118f9612d53565b5b0492506004810190505b60648310611927576064838161191d5761191c612d53565b5b0492506002810190505b600a8310611936576001810190505b80915050919050565b600073ffffffffffffffffffffffffffffffffffffffff168273ffffffffffffffffffffffffffffffffffffffff16036119ae576040517f08c379a00000000000000000000000000000000000000000000000000000000081526004016119a590612dce565b60405180910390fd5b6119b7816114cc565b156119f7576040517f08c379a00000000000000000000000000000000000000000000000000000000081526004016119ee90612e3a565b60405180910390fd5b611a0560008383600161150d565b611a0e816114cc565b15611a4e576040517f08c379a0000000000000000000000000000000000000000000000000000000008152600401611a4590612e3a565b60405180910390fd5b6001600360008473ffffffffffffffffffffffffffffffffffffffff1673ffffffffffffffffffffffffffffffffffffffff16815260200190815260200160002060008282540192505081905550816002600083815260200190815260200160002060006101000a81548173ffffffffffffffffffffffffffffffffffffffff021916908373ffffffffffffffffffffffffffffffffffffffff160217905550808273ffffffffffffffffffffffffffffffffffffffff16600073ffffffffffffffffffffffffffffffffffffffff167fddf252ad1be2c89b69c2b068fc378daa952ba7f163c4a11628f55a4df523b3ef60405160405180910390a4611b58600083836001611513565b5050565b6000604051905090565b600080fd5b600080fd5b60007fffffffff0000000000000000000000000000000000000000000000000000000082169050919050565b611ba581611b70565b8114611bb057600080fd5b50565b600081359050611bc281611b9c565b92915050565b600060208284031215611bde57611bdd611b66565b5b6000611bec84828501611bb3565b91505092915050565b60008115159050919050565b611c0a81611bf5565b82525050565b6000602082019050611c256000830184611c01565b92915050565b600081519050919050565b600082825260208201905092915050565b60005b83811015611c65578082015181840152602081019050611c4a565b60008484015250505050565b6000601f19601f8301169050919050565b6000611c8d82611c2b565b611c978185611c36565b9350611ca7818560208601611c47565b611cb081611c71565b840191505092915050565b60006020820190508181036000830152611cd58184611c82565b905092915050565b6000819050919050565b611cf081611cdd565b8114611cfb57600080fd5b50565b600081359050611d0d81611ce7565b92915050565b600060208284031215611d2957611d28611b66565b5b6000611d3784828501611cfe565b91505092915050565b600073ffffffffffffffffffffffffffffffffffffffff82169050919050565b6000611d6b82611d40565b9050919050565b611d7b81611d60565b82525050565b6000602082019050611d966000830184611d72565b92915050565b611da581611d60565b8114611db057600080fd5b50565b600081359050611dc281611d9c565b92915050565b60008060408385031215611ddf57611dde611b66565b5b6000611ded85828601611db3565b9250506020611dfe85828601611cfe565b9150509250929050565b611e1181611cdd565b82525050565b6000602082019050611e2c6000830184611e08565b92915050565b600080600060608486031215611e4b57611e4a611b66565b5b6000611e5986828701611db3565b9350506020611e6a86828701611db3565b9250506040611e7b86828701611cfe565b9150509250925092565b600060208284031215611e9b57611e9a611b66565b5b6000611ea984828501611db3565b91505092915050565b611ebb81611bf5565b8114611ec657600080fd5b50565b600081359050611ed881611eb2565b92915050565b60008060408385031215611ef557611ef4611b66565b5b6000611f0385828601611db3565b9250506020611f1485828601611ec9565b9150509250929050565b600080fd5b600080fd5b7f4e487b7100000000000000000000000000000000000000000000000000000000600052604160045260246000fd5b611f6082611c71565b810181811067ffffffffffffffff82111715611f7f57611f7e611f28565b5b80604052505050565b6000611f92611b5c565b9050611f9e8282611f57565b919050565b600067ffffffffffffffff821115611fbe57611fbd611f28565b5b611fc782611c71565b9050602081019050919050565b82818337600083830152505050565b6000611ff6611ff184611fa3565b611f88565b90508281526020810184848401111561201257612011611f23565b5b61201d848285611fd4565b509392505050565b600082601f83011261203a57612039611f1e565b5b813561204a848260208601611fe3565b91505092915050565b6000806000806080858703121561206d5761206c611b66565b5b600061207b87828801611db3565b945050602061208c87828801611db3565b935050604061209d87828801611cfe565b925050606085013567ffffffffffffffff8111156120be576120bd611b6b565b5b6120ca87828801612025565b91505092959194509250565b600067ffffffffffffffff8211156120f1576120f0611f28565b5b6120fa82611c71565b9050602081019050919050565b600061211a612115846120d6565b611f88565b90508281526020810184848401111561213657612135611f23565b5b612141848285611fd4565b509392505050565b600082601f83011261215e5761215d611f1e565b5b813561216e848260208601612107565b91505092915050565b6000806040838503121561218e5761218d611b66565b5b600061219c85828601611db3565b925050602083013567ffffffffffffffff8111156121bd576121bc611b6b565b5b6121c985828601612149565b9150509250929050565b600080604083850312156121ea576121e9611b66565b5b60006121f885828601611db3565b925050602061220985828601611db3565b9150509250929050565b7f4e487b7100000000000000000000000000000000000000000000000000000000600052602260045260246000fd5b6000600282049050600182168061225a57607f821691505b60208210810361226d5761226c612213565b5b50919050565b7f4552433732313a20617070726f76616c20746f2063757272656e74206f776e6560008201527f7200000000000000000000000000000000000000000000000000000000000000602082015250565b60006122cf602183611c36565b91506122da82612273565b604082019050919050565b600060208201905081810360008301526122fe816122c2565b9050919050565b7f4552433732313a20617070726f76652063616c6c6572206973206e6f7420746f60008201527f6b656e206f776e6572206f7220617070726f76656420666f7220616c6c000000602082015250565b6000612361603d83611c36565b915061236c82612305565b604082019050919050565b6000602082019050818103600083015261239081612354565b9050919050565b7f4552433732313a2063616c6c6572206973206e6f7420746f6b656e206f776e6560008201527f72206f7220617070726f76656400000000000000000000000000000000000000602082015250565b60006123f3602d83611c36565b91506123fe82612397565b604082019050919050565b60006020820190508181036000830152612422816123e6565b9050919050565b7f4552433732313a20696e76616c696420746f6b656e2049440000000000000000600082015250565b600061245f601883611c36565b915061246a82612429565b602082019050919050565b6000602082019050818103600083015261248e81612452565b9050919050565b7f4552433732313a2061646472657373207a65726f206973206e6f74206120766160008201527f6c6964206f776e65720000000000000000000000000000000000000000000000602082015250565b60006124f1602983611c36565b91506124fc82612495565b604082019050919050565b60006020820190508181036000830152612520816124e4565b9050919050565b600081905092915050565b600061253d82611c2b565b6125478185612527565b9350612557818560208601611c47565b80840191505092915050565b600061256f8285612532565b915061257b8284612532565b91508190509392505050565b60008151905061259681611eb2565b92915050565b6000602082840312156125b2576125b1611b66565b5b60006125c084828501612587565b91505092915050565b7f5f5f5f4f776e6572206d7573742062652061206d656d6265722e5f5f5f000000600082015250565b60006125ff601d83611c36565b915061260a826125c9565b602082019050919050565b6000602082019050818103600083015261262e816125f2565b9050919050565b7f5f5f5f5573657220686173206e6f206d6f726520617661696c61626c6520746f60008201527f6b656e732e5f5f5f000000000000000000000000000000000000000000000000602082015250565b6000612691602883611c36565b915061269c82612635565b604082019050919050565b600060208201905081810360008301526126c081612684565b9050919050565b7f4e487b7100000000000000000000000000000000000000000000000000000000600052601160045260246000fd5b600061270182611cdd565b91507fffffffffffffffffffffffffffffffffffffffffffffffffffffffffffffffff8203612733576127326126c7565b5b600182019050919050565b7f4552433732313a207472616e736665722066726f6d20696e636f72726563742060008201527f6f776e6572000000000000000000000000000000000000000000000000000000602082015250565b600061279a602583611c36565b91506127a58261273e565b604082019050919050565b600060208201905081810360008301526127c98161278d565b9050919050565b7f4552433732313a207472616e7366657220746f20746865207a65726f2061646460008201527f7265737300000000000000000000000000000000000000000000000000000000602082015250565b600061282c602483611c36565b9150612837826127d0565b604082019050919050565b6000602082019050818103600083015261285b8161281f565b9050919050565b7f4552433732313a20617070726f766520746f2063616c6c657200000000000000600082015250565b6000612898601983611c36565b91506128a382612862565b602082019050919050565b600060208201905081810360008301526128c78161288b565b9050919050565b7f4552433732313a207472616e7366657220746f206e6f6e20455243373231526560008201527f63656976657220696d706c656d656e7465720000000000000000000000000000602082015250565b600061292a603283611c36565b9150612935826128ce565b604082019050919050565b600060208201905081810360008301526129598161291d565b9050919050565b7f45524337323155524953746f726167653a2055524920736574206f66206e6f6e60008201527f6578697374656e7420746f6b656e000000000000000000000000000000000000602082015250565b60006129bc602e83611c36565b91506129c782612960565b604082019050919050565b600060208201905081810360008301526129eb816129af565b9050919050565b60008190508160005260206000209050919050565b60006020601f8301049050919050565b600082821b905092915050565b600060088302612a547fffffffffffffffffffffffffffffffffffffffffffffffffffffffffffffffff82612a17565b612a5e8683612a17565b95508019841693508086168417925050509392505050565b6000819050919050565b6000612a9b612a96612a9184611cdd565b612a76565b611cdd565b9050919050565b6000819050919050565b612ab583612a80565b612ac9612ac182612aa2565b848454612a24565b825550505050565b600090565b612ade612ad1565b612ae9818484612aac565b505050565b5b81811015612b0d57612b02600082612ad6565b600181019050612aef565b5050565b601f821115612b5257612b23816129f2565b612b2c84612a07565b81016020851015612b3b578190505b612b4f612b4785612a07565b830182612aee565b50505b505050565b600082821c905092915050565b6000612b7560001984600802612b57565b1980831691505092915050565b6000612b8e8383612b64565b9150826002028217905092915050565b612ba782611c2b565b67ffffffffffffffff811115612bc057612bbf611f28565b5b612bca8254612242565b612bd5828285612b11565b600060209050601f831160018114612c085760008415612bf6578287015190505b612c008582612b82565b865550612c68565b601f198416612c16866129f2565b60005b82811015612c3e57848901518255600182019150602085019450602081019050612c19565b86831015612c5b5784890151612c57601f891682612b64565b8355505b6001600288020188555050505b505050505050565b600081519050919050565b600082825260208201905092915050565b6000612c9782612c70565b612ca18185612c7b565b9350612cb1818560208601611c47565b612cba81611c71565b840191505092915050565b6000608082019050612cda6000830187611d72565b612ce76020830186611d72565b612cf46040830185611e08565b8181036060830152612d068184612c8c565b905095945050505050565b600081519050612d2081611b9c565b92915050565b600060208284031215612d3c57612d3b611b66565b5b6000612d4a84828501612d11565b91505092915050565b7f4e487b7100000000000000000000000000000000000000000000000000000000600052601260045260246000fd5b7f4552433732313a206d696e7420746f20746865207a65726f2061646472657373600082015250565b6000612db8602083611c36565b9150612dc382612d82565b602082019050919050565b60006020820190508181036000830152612de781612dab565b9050919050565b7f4552433732313a20746f6b656e20616c7265616479206d696e74656400000000600082015250565b6000612e24601c83611c36565b9150612e2f82612dee565b602082019050919050565b60006020820190508181036000830152612e5381612e17565b905091905056fea264697066735822122018d7e5b87e178f43f1aa8ef0c1e9a279995fa10b55e3255c4843a2357fc0268d64736f6c63430008110033",
  "immutableReferences": {
    "2943": [
      {
        "length": 32,
        "start": 2048
      },
      {
        "length": 32,
        "start": 2665
      }
    ]
  },
  "source": "// SPDX-License-Identifier: MIT\npragma solidity ^0.8.17;\n\nimport \"@openzeppelin/contracts/token/ERC721/extensions/ERC721URIStorage.sol\";\n\nimport \"./Troca.sol\";\n\ncontract NFT is ERC721URIStorage {\n    uint256 public tokenId  = 0;\n    uint256 public immutable mintLimit;\n\n    constructor() ERC721(\"Troca Club\", \"TRC\") {\n        mintLimit = 10;\n    }    \n   \n    function mint (address _troca, string memory _tokenURI) external returns (uint256) {\n        require(Troca(_troca).members(msg.sender), \"___Owner must be a member.___\");\n        require(balanceOf(msg.sender) < mintLimit, \"___User has no more available tokens.___\");\n        \n        tokenId ++;\n        _safeMint(msg.sender, tokenId);\n        _setTokenURI(tokenId, _tokenURI);       \n\n        return tokenId;\n    }\n}\n",
  "sourcePath": "/Users/mnavapena/Documents/coding/blockchain/troca/smartContracts/contracts/NFT.sol",
  "compiler": {
    "name": "solc",
    "version": "0.8.17+commit.8df45f5f.Emscripten.clang"
  },
  "schemaVersion": "3.4.11",
  "updatedAt": "2023-12-16T20:23:37.353Z",
  "networkType": "ethereum",
  "devdoc": {
    "kind": "dev",
    "methods": {
      "approve(address,uint256)": {
        "details": "See {IERC721-approve}."
      },
      "balanceOf(address)": {
        "details": "See {IERC721-balanceOf}."
      },
      "getApproved(uint256)": {
        "details": "See {IERC721-getApproved}."
      },
      "isApprovedForAll(address,address)": {
        "details": "See {IERC721-isApprovedForAll}."
      },
      "name()": {
        "details": "See {IERC721Metadata-name}."
      },
      "ownerOf(uint256)": {
        "details": "See {IERC721-ownerOf}."
      },
      "safeTransferFrom(address,address,uint256)": {
        "details": "See {IERC721-safeTransferFrom}."
      },
      "safeTransferFrom(address,address,uint256,bytes)": {
        "details": "See {IERC721-safeTransferFrom}."
      },
      "setApprovalForAll(address,bool)": {
        "details": "See {IERC721-setApprovalForAll}."
      },
      "supportsInterface(bytes4)": {
        "details": "See {IERC165-supportsInterface}"
      },
      "symbol()": {
        "details": "See {IERC721Metadata-symbol}."
      },
      "tokenURI(uint256)": {
        "details": "See {IERC721Metadata-tokenURI}."
      },
      "transferFrom(address,address,uint256)": {
        "details": "See {IERC721-transferFrom}."
      }
    },
    "version": 1
  },
  "userdoc": {
    "kind": "user",
    "methods": {},
    "version": 1
  }
}