{
  "contractName": "NFT",
  "abi": [
    {
      "inputs": [],
      "stateMutability": "nonpayable",
      "type": "constructor"
    },
    {
      "anonymous": false,
      "inputs": [
        {
          "indexed": true,
          "internalType": "address",
          "name": "owner",
          "type": "address"
        },
        {
          "indexed": true,
          "internalType": "address",
          "name": "approved",
          "type": "address"
        },
        {
          "indexed": true,
          "internalType": "uint256",
          "name": "tokenId",
          "type": "uint256"
        }
      ],
      "name": "Approval",
      "type": "event"
    },
    {
      "anonymous": false,
      "inputs": [
        {
          "indexed": true,
          "internalType": "address",
          "name": "owner",
          "type": "address"
        },
        {
          "indexed": true,
          "internalType": "address",
          "name": "operator",
          "type": "address"
        },
        {
          "indexed": false,
          "internalType": "bool",
          "name": "approved",
          "type": "bool"
        }
      ],
      "name": "ApprovalForAll",
      "type": "event"
    },
    {
      "anonymous": false,
      "inputs": [
        {
          "indexed": true,
          "internalType": "address",
          "name": "from",
          "type": "address"
        },
        {
          "indexed": true,
          "internalType": "address",
          "name": "to",
          "type": "address"
        },
        {
          "indexed": true,
          "internalType": "uint256",
          "name": "tokenId",
          "type": "uint256"
        }
      ],
      "name": "Transfer",
      "type": "event"
    },
    {
      "inputs": [
        {
          "internalType": "address",
          "name": "to",
          "type": "address"
        },
        {
          "internalType": "uint256",
          "name": "tokenId",
          "type": "uint256"
        }
      ],
      "name": "approve",
      "outputs": [],
      "stateMutability": "nonpayable",
      "type": "function"
    },
    {
      "inputs": [
        {
          "internalType": "address",
          "name": "owner",
          "type": "address"
        }
      ],
      "name": "balanceOf",
      "outputs": [
        {
          "internalType": "uint256",
          "name": "",
          "type": "uint256"
        }
      ],
      "stateMutability": "view",
      "type": "function",
      "constant": true
    },
    {
      "inputs": [
        {
          "internalType": "uint256",
          "name": "tokenId",
          "type": "uint256"
        }
      ],
      "name": "getApproved",
      "outputs": [
        {
          "internalType": "address",
          "name": "",
          "type": "address"
        }
      ],
      "stateMutability": "view",
      "type": "function",
      "constant": true
    },
    {
      "inputs": [
        {
          "internalType": "address",
          "name": "owner",
          "type": "address"
        },
        {
          "internalType": "address",
          "name": "operator",
          "type": "address"
        }
      ],
      "name": "isApprovedForAll",
      "outputs": [
        {
          "internalType": "bool",
          "name": "",
          "type": "bool"
        }
      ],
      "stateMutability": "view",
      "type": "function",
      "constant": true
    },
    {
      "inputs": [],
      "name": "name",
      "outputs": [
        {
          "internalType": "string",
          "name": "",
          "type": "string"
        }
      ],
      "stateMutability": "view",
      "type": "function",
      "constant": true
    },
    {
      "inputs": [
        {
          "internalType": "uint256",
          "name": "tokenId",
          "type": "uint256"
        }
      ],
      "name": "ownerOf",
      "outputs": [
        {
          "internalType": "address",
          "name": "",
          "type": "address"
        }
      ],
      "stateMutability": "view",
      "type": "function",
      "constant": true
    },
    {
      "inputs": [
        {
          "internalType": "uint256",
          "name": "_tokenId",
          "type": "uint256"
        },
        {
          "internalType": "uint256",
          "name": "_salePrice",
          "type": "uint256"
        }
      ],
      "name": "royaltyInfo",
      "outputs": [
        {
          "internalType": "address",
          "name": "",
          "type": "address"
        },
        {
          "internalType": "uint256",
          "name": "",
          "type": "uint256"
        }
      ],
      "stateMutability": "view",
      "type": "function",
      "constant": true
    },
    {
      "inputs": [
        {
          "internalType": "address",
          "name": "from",
          "type": "address"
        },
        {
          "internalType": "address",
          "name": "to",
          "type": "address"
        },
        {
          "internalType": "uint256",
          "name": "tokenId",
          "type": "uint256"
        }
      ],
      "name": "safeTransferFrom",
      "outputs": [],
      "stateMutability": "nonpayable",
      "type": "function"
    },
    {
      "inputs": [
        {
          "internalType": "address",
          "name": "from",
          "type": "address"
        },
        {
          "internalType": "address",
          "name": "to",
          "type": "address"
        },
        {
          "internalType": "uint256",
          "name": "tokenId",
          "type": "uint256"
        },
        {
          "internalType": "bytes",
          "name": "data",
          "type": "bytes"
        }
      ],
      "name": "safeTransferFrom",
      "outputs": [],
      "stateMutability": "nonpayable",
      "type": "function"
    },
    {
      "inputs": [
        {
          "internalType": "address",
          "name": "operator",
          "type": "address"
        },
        {
          "internalType": "bool",
          "name": "approved",
          "type": "bool"
        }
      ],
      "name": "setApprovalForAll",
      "outputs": [],
      "stateMutability": "nonpayable",
      "type": "function"
    },
    {
      "inputs": [],
      "name": "symbol",
      "outputs": [
        {
          "internalType": "string",
          "name": "",
          "type": "string"
        }
      ],
      "stateMutability": "view",
      "type": "function",
      "constant": true
    },
    {
      "inputs": [
        {
          "internalType": "address",
          "name": "from",
          "type": "address"
        },
        {
          "internalType": "address",
          "name": "to",
          "type": "address"
        },
        {
          "internalType": "uint256",
          "name": "tokenId",
          "type": "uint256"
        }
      ],
      "name": "transferFrom",
      "outputs": [],
      "stateMutability": "nonpayable",
      "type": "function"
    },
    {
      "inputs": [
        {
          "internalType": "bytes4",
          "name": "_interfaceId",
          "type": "bytes4"
        }
      ],
      "name": "supportsInterface",
      "outputs": [
        {
          "internalType": "bool",
          "name": "",
          "type": "bool"
        }
      ],
      "stateMutability": "view",
      "type": "function",
      "constant": true
    },
    {
      "inputs": [
        {
          "internalType": "uint256",
          "name": "_tokenId",
          "type": "uint256"
        }
      ],
      "name": "tokenURI",
      "outputs": [
        {
          "internalType": "string",
          "name": "",
          "type": "string"
        }
      ],
      "stateMutability": "view",
      "type": "function",
      "constant": true
    },
    {
      "inputs": [
        {
          "internalType": "address",
          "name": "_troca",
          "type": "address"
        },
        {
          "internalType": "address",
          "name": "_owner",
          "type": "address"
        },
        {
          "internalType": "string",
          "name": "_tokenURI",
          "type": "string"
        },
        {
          "internalType": "uint96",
          "name": "_royalty",
          "type": "uint96"
        }
      ],
      "name": "mint",
      "outputs": [
        {
          "internalType": "uint256",
          "name": "",
          "type": "uint256"
        }
      ],
      "stateMutability": "nonpayable",
      "type": "function"
    }
  ],
  "bytecode": "0x608060405260006009553480156200001657600080fd5b506040518060400160405280600a81526020017f54726f636120436c7562000000000000000000000000000000000000000000008152506040518060400160405280600381526020017f5452430000000000000000000000000000000000000000000000000000000000815250816002908162000094919062000329565b508060039081620000a6919062000329565b50505062000410565b600081519050919050565b7f4e487b7100000000000000000000000000000000000000000000000000000000600052604160045260246000fd5b7f4e487b7100000000000000000000000000000000000000000000000000000000600052602260045260246000fd5b600060028204905060018216806200013157607f821691505b602082108103620001475762000146620000e9565b5b50919050565b60008190508160005260206000209050919050565b60006020601f8301049050919050565b600082821b905092915050565b600060088302620001b17fffffffffffffffffffffffffffffffffffffffffffffffffffffffffffffffff8262000172565b620001bd868362000172565b95508019841693508086168417925050509392505050565b6000819050919050565b6000819050919050565b60006200020a62000204620001fe84620001d5565b620001df565b620001d5565b9050919050565b6000819050919050565b6200022683620001e9565b6200023e620002358262000211565b8484546200017f565b825550505050565b600090565b6200025562000246565b620002628184846200021b565b505050565b5b818110156200028a576200027e6000826200024b565b60018101905062000268565b5050565b601f821115620002d957620002a3816200014d565b620002ae8462000162565b81016020851015620002be578190505b620002d6620002cd8562000162565b83018262000267565b50505b505050565b600082821c905092915050565b6000620002fe60001984600802620002de565b1980831691505092915050565b6000620003198383620002eb565b9150826002028217905092915050565b6200033482620000af565b67ffffffffffffffff81111562000350576200034f620000ba565b5b6200035c825462000118565b620003698282856200028e565b600060209050601f831160018114620003a157600084156200038c578287015190505b6200039885826200030b565b86555062000408565b601f198416620003b1866200014d565b60005b82811015620003db57848901518255600182019150602085019450602081019050620003b4565b86831015620003fb5784890151620003f7601f891682620002eb565b8355505b6001600288020188555050505b505050505050565b6134e380620004206000396000f3fe608060405234801561001057600080fd5b50600436106100f55760003560e01c80636352211e11610097578063a22cb46511610066578063a22cb465146102ab578063b88d4fde146102c7578063c87b56dd146102e3578063e985e9c514610313576100f5565b80636352211e146101fd57806370a082311461022d57806395d89b411461025d5780639a796aae1461027b576100f5565b8063095ea7b3116100d3578063095ea7b31461017857806323b872dd146101945780632a55205a146101b057806342842e0e146101e1576100f5565b806301ffc9a7146100fa57806306fdde031461012a578063081812fc14610148575b600080fd5b610114600480360381019061010f9190612000565b610343565b6040516101219190612048565b60405180910390f35b610132610355565b60405161013f91906120f3565b60405180910390f35b610162600480360381019061015d919061214b565b6103e7565b60405161016f91906121b9565b60405180910390f35b610192600480360381019061018d9190612200565b61042d565b005b6101ae60048036038101906101a99190612240565b610544565b005b6101ca60048036038101906101c59190612293565b6105a4565b6040516101d89291906122e2565b60405180910390f35b6101fb60048036038101906101f69190612240565b61078e565b005b6102176004803603810190610212919061214b565b6107ae565b60405161022491906121b9565b60405180910390f35b6102476004803603810190610242919061230b565b610834565b6040516102549190612338565b60405180910390f35b6102656108eb565b60405161027291906120f3565b60405180910390f35b610295600480360381019061029091906124cc565b61097d565b6040516102a29190612338565b60405180910390f35b6102c560048036038101906102c0919061257b565b610a82565b005b6102e160048036038101906102dc919061265c565b610a98565b005b6102fd60048036038101906102f8919061214b565b610afa565b60405161030a91906120f3565b60405180910390f35b61032d600480360381019061032891906126df565b610b0c565b60405161033a9190612048565b60405180910390f35b600061034e82610ba0565b9050919050565b6060600280546103649061274e565b80601f01602080910402602001604051908101604052809291908181526020018280546103909061274e565b80156103dd5780601f106103b2576101008083540402835291602001916103dd565b820191906000526020600020905b8154815290600101906020018083116103c057829003601f168201915b5050505050905090565b60006103f282610bb2565b6006600083815260200190815260200160002060009054906101000a900473ffffffffffffffffffffffffffffffffffffffff169050919050565b6000610438826107ae565b90508073ffffffffffffffffffffffffffffffffffffffff168373ffffffffffffffffffffffffffffffffffffffff16036104a8576040517f08c379a000000000000000000000000000000000000000000000000000000000815260040161049f906127f1565b60405180910390fd5b8073ffffffffffffffffffffffffffffffffffffffff166104c7610bfd565b73ffffffffffffffffffffffffffffffffffffffff1614806104f657506104f5816104f0610bfd565b610b0c565b5b610535576040517f08c379a000000000000000000000000000000000000000000000000000000000815260040161052c90612883565b60405180910390fd5b61053f8383610c05565b505050565b61055561054f610bfd565b82610cbe565b610594576040517f08c379a000000000000000000000000000000000000000000000000000000000815260040161058b90612915565b60405180910390fd5b61059f838383610d53565b505050565b6000806000600160008681526020019081526020016000206040518060400160405290816000820160009054906101000a900473ffffffffffffffffffffffffffffffffffffffff1673ffffffffffffffffffffffffffffffffffffffff1673ffffffffffffffffffffffffffffffffffffffff1681526020016000820160149054906101000a90046bffffffffffffffffffffffff166bffffffffffffffffffffffff166bffffffffffffffffffffffff16815250509050600073ffffffffffffffffffffffffffffffffffffffff16816000015173ffffffffffffffffffffffffffffffffffffffff16036107395760006040518060400160405290816000820160009054906101000a900473ffffffffffffffffffffffffffffffffffffffff1673ffffffffffffffffffffffffffffffffffffffff1673ffffffffffffffffffffffffffffffffffffffff1681526020016000820160149054906101000a90046bffffffffffffffffffffffff166bffffffffffffffffffffffff166bffffffffffffffffffffffff168152505090505b600061074361104c565b6bffffffffffffffffffffffff1682602001516bffffffffffffffffffffffff168661076f9190612964565b61077991906129d5565b90508160000151819350935050509250929050565b6107a983838360405180602001604052806000815250610a98565b505050565b6000806107ba83611056565b9050600073ffffffffffffffffffffffffffffffffffffffff168173ffffffffffffffffffffffffffffffffffffffff160361082b576040517f08c379a000000000000000000000000000000000000000000000000000000000815260040161082290612a52565b60405180910390fd5b80915050919050565b60008073ffffffffffffffffffffffffffffffffffffffff168273ffffffffffffffffffffffffffffffffffffffff16036108a4576040517f08c379a000000000000000000000000000000000000000000000000000000000815260040161089b90612ae4565b60405180910390fd5b600560008373ffffffffffffffffffffffffffffffffffffffff1673ffffffffffffffffffffffffffffffffffffffff168152602001908152602001600020549050919050565b6060600380546108fa9061274e565b80601f01602080910402602001604051908101604052809291908181526020018280546109269061274e565b80156109735780601f1061094857610100808354040283529160200191610973565b820191906000526020600020905b81548152906001019060200180831161095657829003601f168201915b5050505050905090565b60008473ffffffffffffffffffffffffffffffffffffffff166308ae4b0c856040518263ffffffff1660e01b81526004016109b891906121b9565b602060405180830381865afa1580156109d5573d6000803e3d6000fd5b505050506040513d601f19601f820116820180604052508101906109f99190612b19565b610a38576040517f08c379a0000000000000000000000000000000000000000000000000000000008152600401610a2f90612b92565b60405180910390fd5b60096000815480929190610a4b90612bb2565b9190505550610a5c84600954611093565b610a68600954846110b1565b610a75600954858461111e565b6009549050949350505050565b610a94610a8d610bfd565b83836112c5565b5050565b610aa9610aa3610bfd565b83610cbe565b610ae8576040517f08c379a0000000000000000000000000000000000000000000000000000000008152600401610adf90612915565b60405180910390fd5b610af484848484611431565b50505050565b6060610b058261148d565b9050919050565b6000600760008473ffffffffffffffffffffffffffffffffffffffff1673ffffffffffffffffffffffffffffffffffffffff16815260200190815260200160002060008373ffffffffffffffffffffffffffffffffffffffff1673ffffffffffffffffffffffffffffffffffffffff16815260200190815260200160002060009054906101000a900460ff16905092915050565b6000610bab8261159f565b9050919050565b610bbb81611681565b610bfa576040517f08c379a0000000000000000000000000000000000000000000000000000000008152600401610bf190612a52565b60405180910390fd5b50565b600033905090565b816006600083815260200190815260200160002060006101000a81548173ffffffffffffffffffffffffffffffffffffffff021916908373ffffffffffffffffffffffffffffffffffffffff160217905550808273ffffffffffffffffffffffffffffffffffffffff16610c78836107ae565b73ffffffffffffffffffffffffffffffffffffffff167f8c5be1e5ebec7d5bd14f71427d1e84f3dd0314c0f7b2291e5b200ac8c7c3b92560405160405180910390a45050565b600080610cca836107ae565b90508073ffffffffffffffffffffffffffffffffffffffff168473ffffffffffffffffffffffffffffffffffffffff161480610d0c5750610d0b8185610b0c565b5b80610d4a57508373ffffffffffffffffffffffffffffffffffffffff16610d32846103e7565b73ffffffffffffffffffffffffffffffffffffffff16145b91505092915050565b8273ffffffffffffffffffffffffffffffffffffffff16610d73826107ae565b73ffffffffffffffffffffffffffffffffffffffff1614610dc9576040517f08c379a0000000000000000000000000000000000000000000000000000000008152600401610dc090612c6c565b60405180910390fd5b600073ffffffffffffffffffffffffffffffffffffffff168273ffffffffffffffffffffffffffffffffffffffff1603610e38576040517f08c379a0000000000000000000000000000000000000000000000000000000008152600401610e2f90612cfe565b60405180910390fd5b610e4583838360016116c2565b8273ffffffffffffffffffffffffffffffffffffffff16610e65826107ae565b73ffffffffffffffffffffffffffffffffffffffff1614610ebb576040517f08c379a0000000000000000000000000000000000000000000000000000000008152600401610eb290612c6c565b60405180910390fd5b6006600082815260200190815260200160002060006101000a81549073ffffffffffffffffffffffffffffffffffffffff02191690556001600560008573ffffffffffffffffffffffffffffffffffffffff1673ffffffffffffffffffffffffffffffffffffffff168152602001908152602001600020600082825403925050819055506001600560008473ffffffffffffffffffffffffffffffffffffffff1673ffffffffffffffffffffffffffffffffffffffff16815260200190815260200160002060008282540192505081905550816004600083815260200190815260200160002060006101000a81548173ffffffffffffffffffffffffffffffffffffffff021916908373ffffffffffffffffffffffffffffffffffffffff160217905550808273ffffffffffffffffffffffffffffffffffffffff168473ffffffffffffffffffffffffffffffffffffffff167fddf252ad1be2c89b69c2b068fc378daa952ba7f163c4a11628f55a4df523b3ef60405160405180910390a461104783838360016117e8565b505050565b6000612710905090565b60006004600083815260200190815260200160002060009054906101000a900473ffffffffffffffffffffffffffffffffffffffff169050919050565b6110ad8282604051806020016040528060008152506117ee565b5050565b6110ba82611681565b6110f9576040517f08c379a00000000000000000000000000000000000000000000000000000000081526004016110f090612d90565b60405180910390fd5b806008600084815260200190815260200160002090816111199190612f5c565b505050565b61112661104c565b6bffffffffffffffffffffffff16816bffffffffffffffffffffffff161115611184576040517f08c379a000000000000000000000000000000000000000000000000000000000815260040161117b906130a0565b60405180910390fd5b600073ffffffffffffffffffffffffffffffffffffffff168273ffffffffffffffffffffffffffffffffffffffff16036111f3576040517f08c379a00000000000000000000000000000000000000000000000000000000081526004016111ea9061310c565b60405180910390fd5b60405180604001604052808373ffffffffffffffffffffffffffffffffffffffff168152602001826bffffffffffffffffffffffff168152506001600085815260200190815260200160002060008201518160000160006101000a81548173ffffffffffffffffffffffffffffffffffffffff021916908373ffffffffffffffffffffffffffffffffffffffff16021790555060208201518160000160146101000a8154816bffffffffffffffffffffffff02191690836bffffffffffffffffffffffff160217905550905050505050565b8173ffffffffffffffffffffffffffffffffffffffff168373ffffffffffffffffffffffffffffffffffffffff1603611333576040517f08c379a000000000000000000000000000000000000000000000000000000000815260040161132a90613178565b60405180910390fd5b80600760008573ffffffffffffffffffffffffffffffffffffffff1673ffffffffffffffffffffffffffffffffffffffff16815260200190815260200160002060008473ffffffffffffffffffffffffffffffffffffffff1673ffffffffffffffffffffffffffffffffffffffff16815260200190815260200160002060006101000a81548160ff0219169083151502179055508173ffffffffffffffffffffffffffffffffffffffff168373ffffffffffffffffffffffffffffffffffffffff167f17307eab39ab6107e8899845ad3d59bd9653f200f220920489ca2b5937696c31836040516114249190612048565b60405180910390a3505050565b61143c848484610d53565b61144884848484611849565b611487576040517f08c379a000000000000000000000000000000000000000000000000000000000815260040161147e9061320a565b60405180910390fd5b50505050565b606061149882610bb2565b60006008600084815260200190815260200160002080546114b89061274e565b80601f01602080910402602001604051908101604052809291908181526020018280546114e49061274e565b80156115315780601f1061150657610100808354040283529160200191611531565b820191906000526020600020905b81548152906001019060200180831161151457829003601f168201915b5050505050905060006115426119d0565b9050600081510361155757819250505061159a565b60008251111561158c578082604051602001611574929190613266565b6040516020818303038152906040529250505061159a565b611595846119e7565b925050505b919050565b60007f80ac58cd000000000000000000000000000000000000000000000000000000007bffffffffffffffffffffffffffffffffffffffffffffffffffffffff1916827bffffffffffffffffffffffffffffffffffffffffffffffffffffffff1916148061166a57507f5b5e139f000000000000000000000000000000000000000000000000000000007bffffffffffffffffffffffffffffffffffffffffffffffffffffffff1916827bffffffffffffffffffffffffffffffffffffffffffffffffffffffff1916145b8061167a575061167982611a4f565b5b9050919050565b60008073ffffffffffffffffffffffffffffffffffffffff166116a383611056565b73ffffffffffffffffffffffffffffffffffffffff1614159050919050565b60018111156117e257600073ffffffffffffffffffffffffffffffffffffffff168473ffffffffffffffffffffffffffffffffffffffff16146117565780600560008673ffffffffffffffffffffffffffffffffffffffff1673ffffffffffffffffffffffffffffffffffffffff168152602001908152602001600020600082825461174e919061328a565b925050819055505b600073ffffffffffffffffffffffffffffffffffffffff168373ffffffffffffffffffffffffffffffffffffffff16146117e15780600560008573ffffffffffffffffffffffffffffffffffffffff1673ffffffffffffffffffffffffffffffffffffffff16815260200190815260200160002060008282546117d991906132be565b925050819055505b5b50505050565b50505050565b6117f88383611ac9565b6118056000848484611849565b611844576040517f08c379a000000000000000000000000000000000000000000000000000000000815260040161183b9061320a565b60405180910390fd5b505050565b600061186a8473ffffffffffffffffffffffffffffffffffffffff16611ce6565b156119c3578373ffffffffffffffffffffffffffffffffffffffff1663150b7a02611893610bfd565b8786866040518563ffffffff1660e01b81526004016118b59493929190613347565b6020604051808303816000875af19250505080156118f157506040513d601f19601f820116820180604052508101906118ee91906133a8565b60015b611973573d8060008114611921576040519150601f19603f3d011682016040523d82523d6000602084013e611926565b606091505b50600081510361196b576040517f08c379a00000000000000000000000000000000000000000000000000000000081526004016119629061320a565b60405180910390fd5b805181602001fd5b63150b7a0260e01b7bffffffffffffffffffffffffffffffffffffffffffffffffffffffff1916817bffffffffffffffffffffffffffffffffffffffffffffffffffffffff1916149150506119c8565b600190505b949350505050565b606060405180602001604052806000815250905090565b60606119f282610bb2565b60006119fc6119d0565b90506000815111611a1c5760405180602001604052806000815250611a47565b80611a2684611d09565b604051602001611a37929190613266565b6040516020818303038152906040525b915050919050565b60007f2a55205a000000000000000000000000000000000000000000000000000000007bffffffffffffffffffffffffffffffffffffffffffffffffffffffff1916827bffffffffffffffffffffffffffffffffffffffffffffffffffffffff19161480611ac25750611ac182611dd7565b5b9050919050565b600073ffffffffffffffffffffffffffffffffffffffff168273ffffffffffffffffffffffffffffffffffffffff1603611b38576040517f08c379a0000000000000000000000000000000000000000000000000000000008152600401611b2f90613421565b60405180910390fd5b611b4181611681565b15611b81576040517f08c379a0000000000000000000000000000000000000000000000000000000008152600401611b789061348d565b60405180910390fd5b611b8f6000838360016116c2565b611b9881611681565b15611bd8576040517f08c379a0000000000000000000000000000000000000000000000000000000008152600401611bcf9061348d565b60405180910390fd5b6001600560008473ffffffffffffffffffffffffffffffffffffffff1673ffffffffffffffffffffffffffffffffffffffff16815260200190815260200160002060008282540192505081905550816004600083815260200190815260200160002060006101000a81548173ffffffffffffffffffffffffffffffffffffffff021916908373ffffffffffffffffffffffffffffffffffffffff160217905550808273ffffffffffffffffffffffffffffffffffffffff16600073ffffffffffffffffffffffffffffffffffffffff167fddf252ad1be2c89b69c2b068fc378daa952ba7f163c4a11628f55a4df523b3ef60405160405180910390a4611ce26000838360016117e8565b5050565b6000808273ffffffffffffffffffffffffffffffffffffffff163b119050919050565b606060006001611d1884611e41565b01905060008167ffffffffffffffff811115611d3757611d3661235d565b5b6040519080825280601f01601f191660200182016040528015611d695781602001600182028036833780820191505090505b509050600082602001820190505b600115611dcc578080600190039150507f3031323334353637383961626364656600000000000000000000000000000000600a86061a8153600a8581611dc057611dbf6129a6565b5b04945060008503611d77575b819350505050919050565b60007f01ffc9a7000000000000000000000000000000000000000000000000000000007bffffffffffffffffffffffffffffffffffffffffffffffffffffffff1916827bffffffffffffffffffffffffffffffffffffffffffffffffffffffff1916149050919050565b600080600090507a184f03e93ff9f4daa797ed6e38ed64bf6a1f0100000000000000008310611e9f577a184f03e93ff9f4daa797ed6e38ed64bf6a1f0100000000000000008381611e9557611e946129a6565b5b0492506040810190505b6d04ee2d6d415b85acef81000000008310611edc576d04ee2d6d415b85acef81000000008381611ed257611ed16129a6565b5b0492506020810190505b662386f26fc100008310611f0b57662386f26fc100008381611f0157611f006129a6565b5b0492506010810190505b6305f5e1008310611f34576305f5e1008381611f2a57611f296129a6565b5b0492506008810190505b6127108310611f59576127108381611f4f57611f4e6129a6565b5b0492506004810190505b60648310611f7c5760648381611f7257611f716129a6565b5b0492506002810190505b600a8310611f8b576001810190505b80915050919050565b6000604051905090565b600080fd5b600080fd5b60007fffffffff0000000000000000000000000000000000000000000000000000000082169050919050565b611fdd81611fa8565b8114611fe857600080fd5b50565b600081359050611ffa81611fd4565b92915050565b60006020828403121561201657612015611f9e565b5b600061202484828501611feb565b91505092915050565b60008115159050919050565b6120428161202d565b82525050565b600060208201905061205d6000830184612039565b92915050565b600081519050919050565b600082825260208201905092915050565b60005b8381101561209d578082015181840152602081019050612082565b60008484015250505050565b6000601f19601f8301169050919050565b60006120c582612063565b6120cf818561206e565b93506120df81856020860161207f565b6120e8816120a9565b840191505092915050565b6000602082019050818103600083015261210d81846120ba565b905092915050565b6000819050919050565b61212881612115565b811461213357600080fd5b50565b6000813590506121458161211f565b92915050565b60006020828403121561216157612160611f9e565b5b600061216f84828501612136565b91505092915050565b600073ffffffffffffffffffffffffffffffffffffffff82169050919050565b60006121a382612178565b9050919050565b6121b381612198565b82525050565b60006020820190506121ce60008301846121aa565b92915050565b6121dd81612198565b81146121e857600080fd5b50565b6000813590506121fa816121d4565b92915050565b6000806040838503121561221757612216611f9e565b5b6000612225858286016121eb565b925050602061223685828601612136565b9150509250929050565b60008060006060848603121561225957612258611f9e565b5b6000612267868287016121eb565b9350506020612278868287016121eb565b925050604061228986828701612136565b9150509250925092565b600080604083850312156122aa576122a9611f9e565b5b60006122b885828601612136565b92505060206122c985828601612136565b9150509250929050565b6122dc81612115565b82525050565b60006040820190506122f760008301856121aa565b61230460208301846122d3565b9392505050565b60006020828403121561232157612320611f9e565b5b600061232f848285016121eb565b91505092915050565b600060208201905061234d60008301846122d3565b92915050565b600080fd5b600080fd5b7f4e487b7100000000000000000000000000000000000000000000000000000000600052604160045260246000fd5b612395826120a9565b810181811067ffffffffffffffff821117156123b4576123b361235d565b5b80604052505050565b60006123c7611f94565b90506123d3828261238c565b919050565b600067ffffffffffffffff8211156123f3576123f261235d565b5b6123fc826120a9565b9050602081019050919050565b82818337600083830152505050565b600061242b612426846123d8565b6123bd565b90508281526020810184848401111561244757612446612358565b5b612452848285612409565b509392505050565b600082601f83011261246f5761246e612353565b5b813561247f848260208601612418565b91505092915050565b60006bffffffffffffffffffffffff82169050919050565b6124a981612488565b81146124b457600080fd5b50565b6000813590506124c6816124a0565b92915050565b600080600080608085870312156124e6576124e5611f9e565b5b60006124f4878288016121eb565b9450506020612505878288016121eb565b935050604085013567ffffffffffffffff81111561252657612525611fa3565b5b6125328782880161245a565b9250506060612543878288016124b7565b91505092959194509250565b6125588161202d565b811461256357600080fd5b50565b6000813590506125758161254f565b92915050565b6000806040838503121561259257612591611f9e565b5b60006125a0858286016121eb565b92505060206125b185828601612566565b9150509250929050565b600067ffffffffffffffff8211156125d6576125d561235d565b5b6125df826120a9565b9050602081019050919050565b60006125ff6125fa846125bb565b6123bd565b90508281526020810184848401111561261b5761261a612358565b5b612626848285612409565b509392505050565b600082601f83011261264357612642612353565b5b81356126538482602086016125ec565b91505092915050565b6000806000806080858703121561267657612675611f9e565b5b6000612684878288016121eb565b9450506020612695878288016121eb565b93505060406126a687828801612136565b925050606085013567ffffffffffffffff8111156126c7576126c6611fa3565b5b6126d38782880161262e565b91505092959194509250565b600080604083850312156126f6576126f5611f9e565b5b6000612704858286016121eb565b9250506020612715858286016121eb565b9150509250929050565b7f4e487b7100000000000000000000000000000000000000000000000000000000600052602260045260246000fd5b6000600282049050600182168061276657607f821691505b6020821081036127795761277861271f565b5b50919050565b7f4552433732313a20617070726f76616c20746f2063757272656e74206f776e6560008201527f7200000000000000000000000000000000000000000000000000000000000000602082015250565b60006127db60218361206e565b91506127e68261277f565b604082019050919050565b6000602082019050818103600083015261280a816127ce565b9050919050565b7f4552433732313a20617070726f76652063616c6c6572206973206e6f7420746f60008201527f6b656e206f776e6572206f7220617070726f76656420666f7220616c6c000000602082015250565b600061286d603d8361206e565b915061287882612811565b604082019050919050565b6000602082019050818103600083015261289c81612860565b9050919050565b7f4552433732313a2063616c6c6572206973206e6f7420746f6b656e206f776e6560008201527f72206f7220617070726f76656400000000000000000000000000000000000000602082015250565b60006128ff602d8361206e565b915061290a826128a3565b604082019050919050565b6000602082019050818103600083015261292e816128f2565b9050919050565b7f4e487b7100000000000000000000000000000000000000000000000000000000600052601160045260246000fd5b600061296f82612115565b915061297a83612115565b925082820261298881612115565b9150828204841483151761299f5761299e612935565b5b5092915050565b7f4e487b7100000000000000000000000000000000000000000000000000000000600052601260045260246000fd5b60006129e082612115565b91506129eb83612115565b9250826129fb576129fa6129a6565b5b828204905092915050565b7f4552433732313a20696e76616c696420746f6b656e2049440000000000000000600082015250565b6000612a3c60188361206e565b9150612a4782612a06565b602082019050919050565b60006020820190508181036000830152612a6b81612a2f565b9050919050565b7f4552433732313a2061646472657373207a65726f206973206e6f74206120766160008201527f6c6964206f776e65720000000000000000000000000000000000000000000000602082015250565b6000612ace60298361206e565b9150612ad982612a72565b604082019050919050565b60006020820190508181036000830152612afd81612ac1565b9050919050565b600081519050612b138161254f565b92915050565b600060208284031215612b2f57612b2e611f9e565b5b6000612b3d84828501612b04565b91505092915050565b7f5f5f5f4f776e6572206d7573742062652061206d656d6265722e5f5f5f000000600082015250565b6000612b7c601d8361206e565b9150612b8782612b46565b602082019050919050565b60006020820190508181036000830152612bab81612b6f565b9050919050565b6000612bbd82612115565b91507fffffffffffffffffffffffffffffffffffffffffffffffffffffffffffffffff8203612bef57612bee612935565b5b600182019050919050565b7f4552433732313a207472616e736665722066726f6d20696e636f72726563742060008201527f6f776e6572000000000000000000000000000000000000000000000000000000602082015250565b6000612c5660258361206e565b9150612c6182612bfa565b604082019050919050565b60006020820190508181036000830152612c8581612c49565b9050919050565b7f4552433732313a207472616e7366657220746f20746865207a65726f2061646460008201527f7265737300000000000000000000000000000000000000000000000000000000602082015250565b6000612ce860248361206e565b9150612cf382612c8c565b604082019050919050565b60006020820190508181036000830152612d1781612cdb565b9050919050565b7f45524337323155524953746f726167653a2055524920736574206f66206e6f6e60008201527f6578697374656e7420746f6b656e000000000000000000000000000000000000602082015250565b6000612d7a602e8361206e565b9150612d8582612d1e565b604082019050919050565b60006020820190508181036000830152612da981612d6d565b9050919050565b60008190508160005260206000209050919050565b60006020601f8301049050919050565b600082821b905092915050565b600060088302612e127fffffffffffffffffffffffffffffffffffffffffffffffffffffffffffffffff82612dd5565b612e1c8683612dd5565b95508019841693508086168417925050509392505050565b6000819050919050565b6000612e59612e54612e4f84612115565b612e34565b612115565b9050919050565b6000819050919050565b612e7383612e3e565b612e87612e7f82612e60565b848454612de2565b825550505050565b600090565b612e9c612e8f565b612ea7818484612e6a565b505050565b5b81811015612ecb57612ec0600082612e94565b600181019050612ead565b5050565b601f821115612f1057612ee181612db0565b612eea84612dc5565b81016020851015612ef9578190505b612f0d612f0585612dc5565b830182612eac565b50505b505050565b600082821c905092915050565b6000612f3360001984600802612f15565b1980831691505092915050565b6000612f4c8383612f22565b9150826002028217905092915050565b612f6582612063565b67ffffffffffffffff811115612f7e57612f7d61235d565b5b612f88825461274e565b612f93828285612ecf565b600060209050601f831160018114612fc65760008415612fb4578287015190505b612fbe8582612f40565b865550613026565b601f198416612fd486612db0565b60005b82811015612ffc57848901518255600182019150602085019450602081019050612fd7565b868310156130195784890151613015601f891682612f22565b8355505b6001600288020188555050505b505050505050565b7f455243323938313a20726f79616c7479206665652077696c6c2065786365656460008201527f2073616c65507269636500000000000000000000000000000000000000000000602082015250565b600061308a602a8361206e565b91506130958261302e565b604082019050919050565b600060208201905081810360008301526130b98161307d565b9050919050565b7f455243323938313a20496e76616c696420706172616d65746572730000000000600082015250565b60006130f6601b8361206e565b9150613101826130c0565b602082019050919050565b60006020820190508181036000830152613125816130e9565b9050919050565b7f4552433732313a20617070726f766520746f2063616c6c657200000000000000600082015250565b600061316260198361206e565b915061316d8261312c565b602082019050919050565b6000602082019050818103600083015261319181613155565b9050919050565b7f4552433732313a207472616e7366657220746f206e6f6e20455243373231526560008201527f63656976657220696d706c656d656e7465720000000000000000000000000000602082015250565b60006131f460328361206e565b91506131ff82613198565b604082019050919050565b60006020820190508181036000830152613223816131e7565b9050919050565b600081905092915050565b600061324082612063565b61324a818561322a565b935061325a81856020860161207f565b80840191505092915050565b60006132728285613235565b915061327e8284613235565b91508190509392505050565b600061329582612115565b91506132a083612115565b92508282039050818111156132b8576132b7612935565b5b92915050565b60006132c982612115565b91506132d483612115565b92508282019050808211156132ec576132eb612935565b5b92915050565b600081519050919050565b600082825260208201905092915050565b6000613319826132f2565b61332381856132fd565b935061333381856020860161207f565b61333c816120a9565b840191505092915050565b600060808201905061335c60008301876121aa565b61336960208301866121aa565b61337660408301856122d3565b8181036060830152613388818461330e565b905095945050505050565b6000815190506133a281611fd4565b92915050565b6000602082840312156133be576133bd611f9e565b5b60006133cc84828501613393565b91505092915050565b7f4552433732313a206d696e7420746f20746865207a65726f2061646472657373600082015250565b600061340b60208361206e565b9150613416826133d5565b602082019050919050565b6000602082019050818103600083015261343a816133fe565b9050919050565b7f4552433732313a20746f6b656e20616c7265616479206d696e74656400000000600082015250565b6000613477601c8361206e565b915061348282613441565b602082019050919050565b600060208201905081810360008301526134a68161346a565b905091905056fea2646970667358221220be04f2f43eaa1c0907209e2708ad0c4b689a7d5d82f8208b97f66a7fd8ace20764736f6c63430008110033",
  "immutableReferences": {},
  "source": "// SPDX-License-Identifier: MIT\npragma solidity ^0.8.17;\n\nimport \"@openzeppelin/contracts/token/ERC721/extensions/ERC721URIStorage.sol\";\nimport \"@openzeppelin/contracts/token/ERC721/extensions/ERC721Royalty.sol\";\n\nimport \"./Troca.sol\";\n\ncontract NFT is ERC721URIStorage, ERC721Royalty {\n    uint256 private tokenId  = 0;\n\n    constructor() ERC721(\"Troca Club\", \"TRC\") {}\n\n    function _burn(uint256 _tokenId) internal override(ERC721URIStorage, ERC721Royalty) {\n        super._burn(_tokenId);\n    }\n\n    function supportsInterface(bytes4 _interfaceId) public view override(ERC721, ERC721Royalty) returns (bool)\n    {\n        return super.supportsInterface(_interfaceId);\n    }\n\n    function tokenURI(uint256 _tokenId) public view override(ERC721, ERC721URIStorage) returns (string memory)\n    {\n        return super.tokenURI(_tokenId);\n    }\n   \n    function mint (address _troca, address _owner, string memory _tokenURI, uint96 _royalty) external returns (uint256) {\n        require(Troca(_troca).members(_owner), \"___Owner must be a member.___\");\n        \n        tokenId ++;\n        _safeMint(_owner, tokenId);\n        _setTokenURI(tokenId, _tokenURI);\n        _setTokenRoyalty(tokenId, _owner, _royalty);\n\n        return tokenId;\n    }\n}\n",
  "sourcePath": "/Users/mnavapena/Documents/coding/blockchain/troca/smartContracts/contracts/NFT.sol",
  "compiler": {
    "name": "solc",
    "version": "0.8.17+commit.8df45f5f.Emscripten.clang"
  },
  "schemaVersion": "3.4.11",
  "updatedAt": "2023-02-04T16:51:54.829Z",
  "networkType": "ethereum",
  "devdoc": {
    "kind": "dev",
    "methods": {
      "approve(address,uint256)": {
        "details": "See {IERC721-approve}."
      },
      "balanceOf(address)": {
        "details": "See {IERC721-balanceOf}."
      },
      "getApproved(uint256)": {
        "details": "See {IERC721-getApproved}."
      },
      "isApprovedForAll(address,address)": {
        "details": "See {IERC721-isApprovedForAll}."
      },
      "name()": {
        "details": "See {IERC721Metadata-name}."
      },
      "ownerOf(uint256)": {
        "details": "See {IERC721-ownerOf}."
      },
      "royaltyInfo(uint256,uint256)": {
        "details": "Returns how much royalty is owed and to whom, based on a sale price that may be denominated in any unit of exchange. The royalty amount is denominated and should be paid in that same unit of exchange."
      },
      "safeTransferFrom(address,address,uint256)": {
        "details": "See {IERC721-safeTransferFrom}."
      },
      "safeTransferFrom(address,address,uint256,bytes)": {
        "details": "See {IERC721-safeTransferFrom}."
      },
      "setApprovalForAll(address,bool)": {
        "details": "See {IERC721-setApprovalForAll}."
      },
      "symbol()": {
        "details": "See {IERC721Metadata-symbol}."
      },
      "transferFrom(address,address,uint256)": {
        "details": "See {IERC721-transferFrom}."
      }
    },
    "version": 1
  },
  "userdoc": {
    "kind": "user",
    "methods": {},
    "version": 1
  }
}