{
  "contractName": "NFT",
  "abi": [
    {
      "inputs": [],
      "stateMutability": "nonpayable",
      "type": "constructor"
    },
    {
      "anonymous": false,
      "inputs": [
        {
          "indexed": true,
          "internalType": "address",
          "name": "owner",
          "type": "address"
        },
        {
          "indexed": true,
          "internalType": "address",
          "name": "approved",
          "type": "address"
        },
        {
          "indexed": true,
          "internalType": "uint256",
          "name": "tokenId",
          "type": "uint256"
        }
      ],
      "name": "Approval",
      "type": "event"
    },
    {
      "anonymous": false,
      "inputs": [
        {
          "indexed": true,
          "internalType": "address",
          "name": "owner",
          "type": "address"
        },
        {
          "indexed": true,
          "internalType": "address",
          "name": "operator",
          "type": "address"
        },
        {
          "indexed": false,
          "internalType": "bool",
          "name": "approved",
          "type": "bool"
        }
      ],
      "name": "ApprovalForAll",
      "type": "event"
    },
    {
      "anonymous": false,
      "inputs": [
        {
          "indexed": true,
          "internalType": "address",
          "name": "from",
          "type": "address"
        },
        {
          "indexed": true,
          "internalType": "address",
          "name": "to",
          "type": "address"
        },
        {
          "indexed": true,
          "internalType": "uint256",
          "name": "tokenId",
          "type": "uint256"
        }
      ],
      "name": "Transfer",
      "type": "event"
    },
    {
      "inputs": [
        {
          "internalType": "address",
          "name": "to",
          "type": "address"
        },
        {
          "internalType": "uint256",
          "name": "tokenId",
          "type": "uint256"
        }
      ],
      "name": "approve",
      "outputs": [],
      "stateMutability": "nonpayable",
      "type": "function"
    },
    {
      "inputs": [
        {
          "internalType": "address",
          "name": "owner",
          "type": "address"
        }
      ],
      "name": "balanceOf",
      "outputs": [
        {
          "internalType": "uint256",
          "name": "",
          "type": "uint256"
        }
      ],
      "stateMutability": "view",
      "type": "function",
      "constant": true
    },
    {
      "inputs": [
        {
          "internalType": "uint256",
          "name": "tokenId",
          "type": "uint256"
        }
      ],
      "name": "getApproved",
      "outputs": [
        {
          "internalType": "address",
          "name": "",
          "type": "address"
        }
      ],
      "stateMutability": "view",
      "type": "function",
      "constant": true
    },
    {
      "inputs": [
        {
          "internalType": "address",
          "name": "owner",
          "type": "address"
        },
        {
          "internalType": "address",
          "name": "operator",
          "type": "address"
        }
      ],
      "name": "isApprovedForAll",
      "outputs": [
        {
          "internalType": "bool",
          "name": "",
          "type": "bool"
        }
      ],
      "stateMutability": "view",
      "type": "function",
      "constant": true
    },
    {
      "inputs": [],
      "name": "name",
      "outputs": [
        {
          "internalType": "string",
          "name": "",
          "type": "string"
        }
      ],
      "stateMutability": "view",
      "type": "function",
      "constant": true
    },
    {
      "inputs": [
        {
          "internalType": "uint256",
          "name": "tokenId",
          "type": "uint256"
        }
      ],
      "name": "ownerOf",
      "outputs": [
        {
          "internalType": "address",
          "name": "",
          "type": "address"
        }
      ],
      "stateMutability": "view",
      "type": "function",
      "constant": true
    },
    {
      "inputs": [
        {
          "internalType": "uint256",
          "name": "_tokenId",
          "type": "uint256"
        },
        {
          "internalType": "uint256",
          "name": "_salePrice",
          "type": "uint256"
        }
      ],
      "name": "royaltyInfo",
      "outputs": [
        {
          "internalType": "address",
          "name": "",
          "type": "address"
        },
        {
          "internalType": "uint256",
          "name": "",
          "type": "uint256"
        }
      ],
      "stateMutability": "view",
      "type": "function",
      "constant": true
    },
    {
      "inputs": [
        {
          "internalType": "address",
          "name": "from",
          "type": "address"
        },
        {
          "internalType": "address",
          "name": "to",
          "type": "address"
        },
        {
          "internalType": "uint256",
          "name": "tokenId",
          "type": "uint256"
        }
      ],
      "name": "safeTransferFrom",
      "outputs": [],
      "stateMutability": "nonpayable",
      "type": "function"
    },
    {
      "inputs": [
        {
          "internalType": "address",
          "name": "from",
          "type": "address"
        },
        {
          "internalType": "address",
          "name": "to",
          "type": "address"
        },
        {
          "internalType": "uint256",
          "name": "tokenId",
          "type": "uint256"
        },
        {
          "internalType": "bytes",
          "name": "data",
          "type": "bytes"
        }
      ],
      "name": "safeTransferFrom",
      "outputs": [],
      "stateMutability": "nonpayable",
      "type": "function"
    },
    {
      "inputs": [
        {
          "internalType": "address",
          "name": "operator",
          "type": "address"
        },
        {
          "internalType": "bool",
          "name": "approved",
          "type": "bool"
        }
      ],
      "name": "setApprovalForAll",
      "outputs": [],
      "stateMutability": "nonpayable",
      "type": "function"
    },
    {
      "inputs": [],
      "name": "symbol",
      "outputs": [
        {
          "internalType": "string",
          "name": "",
          "type": "string"
        }
      ],
      "stateMutability": "view",
      "type": "function",
      "constant": true
    },
    {
      "inputs": [
        {
          "internalType": "address",
          "name": "from",
          "type": "address"
        },
        {
          "internalType": "address",
          "name": "to",
          "type": "address"
        },
        {
          "internalType": "uint256",
          "name": "tokenId",
          "type": "uint256"
        }
      ],
      "name": "transferFrom",
      "outputs": [],
      "stateMutability": "nonpayable",
      "type": "function"
    },
    {
      "inputs": [
        {
          "internalType": "bytes4",
          "name": "_interfaceId",
          "type": "bytes4"
        }
      ],
      "name": "supportsInterface",
      "outputs": [
        {
          "internalType": "bool",
          "name": "",
          "type": "bool"
        }
      ],
      "stateMutability": "view",
      "type": "function",
      "constant": true
    },
    {
      "inputs": [
        {
          "internalType": "uint256",
          "name": "_tokenId",
          "type": "uint256"
        }
      ],
      "name": "tokenURI",
      "outputs": [
        {
          "internalType": "string",
          "name": "",
          "type": "string"
        }
      ],
      "stateMutability": "view",
      "type": "function",
      "constant": true
    },
    {
      "inputs": [
        {
          "internalType": "address",
          "name": "_troca",
          "type": "address"
        },
        {
          "internalType": "string",
          "name": "_tokenURI",
          "type": "string"
        },
        {
          "internalType": "uint96",
          "name": "_royalty",
          "type": "uint96"
        }
      ],
      "name": "mint",
      "outputs": [
        {
          "internalType": "uint256",
          "name": "",
          "type": "uint256"
        }
      ],
      "stateMutability": "nonpayable",
      "type": "function"
    }
  ],
  "bytecode": "0x608060405260006009553480156200001657600080fd5b506040518060400160405280600a81526020017f54726f636120436c7562000000000000000000000000000000000000000000008152506040518060400160405280600381526020017f5452430000000000000000000000000000000000000000000000000000000000815250816002908162000094919062000329565b508060039081620000a6919062000329565b50505062000410565b600081519050919050565b7f4e487b7100000000000000000000000000000000000000000000000000000000600052604160045260246000fd5b7f4e487b7100000000000000000000000000000000000000000000000000000000600052602260045260246000fd5b600060028204905060018216806200013157607f821691505b602082108103620001475762000146620000e9565b5b50919050565b60008190508160005260206000209050919050565b60006020601f8301049050919050565b600082821b905092915050565b600060088302620001b17fffffffffffffffffffffffffffffffffffffffffffffffffffffffffffffffff8262000172565b620001bd868362000172565b95508019841693508086168417925050509392505050565b6000819050919050565b6000819050919050565b60006200020a62000204620001fe84620001d5565b620001df565b620001d5565b9050919050565b6000819050919050565b6200022683620001e9565b6200023e620002358262000211565b8484546200017f565b825550505050565b600090565b6200025562000246565b620002628184846200021b565b505050565b5b818110156200028a576200027e6000826200024b565b60018101905062000268565b5050565b601f821115620002d957620002a3816200014d565b620002ae8462000162565b81016020851015620002be578190505b620002d6620002cd8562000162565b83018262000267565b50505b505050565b600082821c905092915050565b6000620002fe60001984600802620002de565b1980831691505092915050565b6000620003198383620002eb565b9150826002028217905092915050565b6200033482620000af565b67ffffffffffffffff81111562000350576200034f620000ba565b5b6200035c825462000118565b620003698282856200028e565b600060209050601f831160018114620003a157600084156200038c578287015190505b6200039885826200030b565b86555062000408565b601f198416620003b1866200014d565b60005b82811015620003db57848901518255600182019150602085019450602081019050620003b4565b86831015620003fb5784890151620003f7601f891682620002eb565b8355505b6001600288020188555050505b505050505050565b6134ce80620004206000396000f3fe608060405234801561001057600080fd5b50600436106100f55760003560e01c80636352211e11610097578063a22cb46511610066578063a22cb465146102ab578063b88d4fde146102c7578063c87b56dd146102e3578063e985e9c514610313576100f5565b80636352211e146101fd57806370a082311461022d5780637b17b7a81461025d57806395d89b411461028d576100f5565b8063095ea7b3116100d3578063095ea7b31461017857806323b872dd146101945780632a55205a146101b057806342842e0e146101e1576100f5565b806301ffc9a7146100fa57806306fdde031461012a578063081812fc14610148575b600080fd5b610114600480360381019061010f9190611fff565b610343565b6040516101219190612047565b60405180910390f35b610132610355565b60405161013f91906120f2565b60405180910390f35b610162600480360381019061015d919061214a565b6103e7565b60405161016f91906121b8565b60405180910390f35b610192600480360381019061018d91906121ff565b61042d565b005b6101ae60048036038101906101a9919061223f565b610544565b005b6101ca60048036038101906101c59190612292565b6105a4565b6040516101d89291906122e1565b60405180910390f35b6101fb60048036038101906101f6919061223f565b61078e565b005b6102176004803603810190610212919061214a565b6107ae565b60405161022491906121b8565b60405180910390f35b6102476004803603810190610242919061230a565b610834565b6040516102549190612337565b60405180910390f35b610277600480360381019061027291906124cb565b6108eb565b6040516102849190612337565b60405180910390f35b6102956109ef565b6040516102a291906120f2565b60405180910390f35b6102c560048036038101906102c09190612566565b610a81565b005b6102e160048036038101906102dc9190612647565b610a97565b005b6102fd60048036038101906102f8919061214a565b610af9565b60405161030a91906120f2565b60405180910390f35b61032d600480360381019061032891906126ca565b610b0b565b60405161033a9190612047565b60405180910390f35b600061034e82610b9f565b9050919050565b60606002805461036490612739565b80601f016020809104026020016040519081016040528092919081815260200182805461039090612739565b80156103dd5780601f106103b2576101008083540402835291602001916103dd565b820191906000526020600020905b8154815290600101906020018083116103c057829003601f168201915b5050505050905090565b60006103f282610bb1565b6006600083815260200190815260200160002060009054906101000a900473ffffffffffffffffffffffffffffffffffffffff169050919050565b6000610438826107ae565b90508073ffffffffffffffffffffffffffffffffffffffff168373ffffffffffffffffffffffffffffffffffffffff16036104a8576040517f08c379a000000000000000000000000000000000000000000000000000000000815260040161049f906127dc565b60405180910390fd5b8073ffffffffffffffffffffffffffffffffffffffff166104c7610bfc565b73ffffffffffffffffffffffffffffffffffffffff1614806104f657506104f5816104f0610bfc565b610b0b565b5b610535576040517f08c379a000000000000000000000000000000000000000000000000000000000815260040161052c9061286e565b60405180910390fd5b61053f8383610c04565b505050565b61055561054f610bfc565b82610cbd565b610594576040517f08c379a000000000000000000000000000000000000000000000000000000000815260040161058b90612900565b60405180910390fd5b61059f838383610d52565b505050565b6000806000600160008681526020019081526020016000206040518060400160405290816000820160009054906101000a900473ffffffffffffffffffffffffffffffffffffffff1673ffffffffffffffffffffffffffffffffffffffff1673ffffffffffffffffffffffffffffffffffffffff1681526020016000820160149054906101000a90046bffffffffffffffffffffffff166bffffffffffffffffffffffff166bffffffffffffffffffffffff16815250509050600073ffffffffffffffffffffffffffffffffffffffff16816000015173ffffffffffffffffffffffffffffffffffffffff16036107395760006040518060400160405290816000820160009054906101000a900473ffffffffffffffffffffffffffffffffffffffff1673ffffffffffffffffffffffffffffffffffffffff1673ffffffffffffffffffffffffffffffffffffffff1681526020016000820160149054906101000a90046bffffffffffffffffffffffff166bffffffffffffffffffffffff166bffffffffffffffffffffffff168152505090505b600061074361104b565b6bffffffffffffffffffffffff1682602001516bffffffffffffffffffffffff168661076f919061294f565b61077991906129c0565b90508160000151819350935050509250929050565b6107a983838360405180602001604052806000815250610a97565b505050565b6000806107ba83611055565b9050600073ffffffffffffffffffffffffffffffffffffffff168173ffffffffffffffffffffffffffffffffffffffff160361082b576040517f08c379a000000000000000000000000000000000000000000000000000000000815260040161082290612a3d565b60405180910390fd5b80915050919050565b60008073ffffffffffffffffffffffffffffffffffffffff168273ffffffffffffffffffffffffffffffffffffffff16036108a4576040517f08c379a000000000000000000000000000000000000000000000000000000000815260040161089b90612acf565b60405180910390fd5b600560008373ffffffffffffffffffffffffffffffffffffffff1673ffffffffffffffffffffffffffffffffffffffff168152602001908152602001600020549050919050565b60008373ffffffffffffffffffffffffffffffffffffffff166308ae4b0c336040518263ffffffff1660e01b815260040161092691906121b8565b602060405180830381865afa158015610943573d6000803e3d6000fd5b505050506040513d601f19601f820116820180604052508101906109679190612b04565b6109a6576040517f08c379a000000000000000000000000000000000000000000000000000000000815260040161099d90612b7d565b60405180910390fd5b600960008154809291906109b990612b9d565b91905055506109ca33600954611092565b6109d6600954846110b0565b6109e3600954338461111d565b60095490509392505050565b6060600380546109fe90612739565b80601f0160208091040260200160405190810160405280929190818152602001828054610a2a90612739565b8015610a775780601f10610a4c57610100808354040283529160200191610a77565b820191906000526020600020905b815481529060010190602001808311610a5a57829003601f168201915b5050505050905090565b610a93610a8c610bfc565b83836112c4565b5050565b610aa8610aa2610bfc565b83610cbd565b610ae7576040517f08c379a0000000000000000000000000000000000000000000000000000000008152600401610ade90612900565b60405180910390fd5b610af384848484611430565b50505050565b6060610b048261148c565b9050919050565b6000600760008473ffffffffffffffffffffffffffffffffffffffff1673ffffffffffffffffffffffffffffffffffffffff16815260200190815260200160002060008373ffffffffffffffffffffffffffffffffffffffff1673ffffffffffffffffffffffffffffffffffffffff16815260200190815260200160002060009054906101000a900460ff16905092915050565b6000610baa8261159e565b9050919050565b610bba81611680565b610bf9576040517f08c379a0000000000000000000000000000000000000000000000000000000008152600401610bf090612a3d565b60405180910390fd5b50565b600033905090565b816006600083815260200190815260200160002060006101000a81548173ffffffffffffffffffffffffffffffffffffffff021916908373ffffffffffffffffffffffffffffffffffffffff160217905550808273ffffffffffffffffffffffffffffffffffffffff16610c77836107ae565b73ffffffffffffffffffffffffffffffffffffffff167f8c5be1e5ebec7d5bd14f71427d1e84f3dd0314c0f7b2291e5b200ac8c7c3b92560405160405180910390a45050565b600080610cc9836107ae565b90508073ffffffffffffffffffffffffffffffffffffffff168473ffffffffffffffffffffffffffffffffffffffff161480610d0b5750610d0a8185610b0b565b5b80610d4957508373ffffffffffffffffffffffffffffffffffffffff16610d31846103e7565b73ffffffffffffffffffffffffffffffffffffffff16145b91505092915050565b8273ffffffffffffffffffffffffffffffffffffffff16610d72826107ae565b73ffffffffffffffffffffffffffffffffffffffff1614610dc8576040517f08c379a0000000000000000000000000000000000000000000000000000000008152600401610dbf90612c57565b60405180910390fd5b600073ffffffffffffffffffffffffffffffffffffffff168273ffffffffffffffffffffffffffffffffffffffff1603610e37576040517f08c379a0000000000000000000000000000000000000000000000000000000008152600401610e2e90612ce9565b60405180910390fd5b610e4483838360016116c1565b8273ffffffffffffffffffffffffffffffffffffffff16610e64826107ae565b73ffffffffffffffffffffffffffffffffffffffff1614610eba576040517f08c379a0000000000000000000000000000000000000000000000000000000008152600401610eb190612c57565b60405180910390fd5b6006600082815260200190815260200160002060006101000a81549073ffffffffffffffffffffffffffffffffffffffff02191690556001600560008573ffffffffffffffffffffffffffffffffffffffff1673ffffffffffffffffffffffffffffffffffffffff168152602001908152602001600020600082825403925050819055506001600560008473ffffffffffffffffffffffffffffffffffffffff1673ffffffffffffffffffffffffffffffffffffffff16815260200190815260200160002060008282540192505081905550816004600083815260200190815260200160002060006101000a81548173ffffffffffffffffffffffffffffffffffffffff021916908373ffffffffffffffffffffffffffffffffffffffff160217905550808273ffffffffffffffffffffffffffffffffffffffff168473ffffffffffffffffffffffffffffffffffffffff167fddf252ad1be2c89b69c2b068fc378daa952ba7f163c4a11628f55a4df523b3ef60405160405180910390a461104683838360016117e7565b505050565b6000612710905090565b60006004600083815260200190815260200160002060009054906101000a900473ffffffffffffffffffffffffffffffffffffffff169050919050565b6110ac8282604051806020016040528060008152506117ed565b5050565b6110b982611680565b6110f8576040517f08c379a00000000000000000000000000000000000000000000000000000000081526004016110ef90612d7b565b60405180910390fd5b806008600084815260200190815260200160002090816111189190612f47565b505050565b61112561104b565b6bffffffffffffffffffffffff16816bffffffffffffffffffffffff161115611183576040517f08c379a000000000000000000000000000000000000000000000000000000000815260040161117a9061308b565b60405180910390fd5b600073ffffffffffffffffffffffffffffffffffffffff168273ffffffffffffffffffffffffffffffffffffffff16036111f2576040517f08c379a00000000000000000000000000000000000000000000000000000000081526004016111e9906130f7565b60405180910390fd5b60405180604001604052808373ffffffffffffffffffffffffffffffffffffffff168152602001826bffffffffffffffffffffffff168152506001600085815260200190815260200160002060008201518160000160006101000a81548173ffffffffffffffffffffffffffffffffffffffff021916908373ffffffffffffffffffffffffffffffffffffffff16021790555060208201518160000160146101000a8154816bffffffffffffffffffffffff02191690836bffffffffffffffffffffffff160217905550905050505050565b8173ffffffffffffffffffffffffffffffffffffffff168373ffffffffffffffffffffffffffffffffffffffff1603611332576040517f08c379a000000000000000000000000000000000000000000000000000000000815260040161132990613163565b60405180910390fd5b80600760008573ffffffffffffffffffffffffffffffffffffffff1673ffffffffffffffffffffffffffffffffffffffff16815260200190815260200160002060008473ffffffffffffffffffffffffffffffffffffffff1673ffffffffffffffffffffffffffffffffffffffff16815260200190815260200160002060006101000a81548160ff0219169083151502179055508173ffffffffffffffffffffffffffffffffffffffff168373ffffffffffffffffffffffffffffffffffffffff167f17307eab39ab6107e8899845ad3d59bd9653f200f220920489ca2b5937696c31836040516114239190612047565b60405180910390a3505050565b61143b848484610d52565b61144784848484611848565b611486576040517f08c379a000000000000000000000000000000000000000000000000000000000815260040161147d906131f5565b60405180910390fd5b50505050565b606061149782610bb1565b60006008600084815260200190815260200160002080546114b790612739565b80601f01602080910402602001604051908101604052809291908181526020018280546114e390612739565b80156115305780601f1061150557610100808354040283529160200191611530565b820191906000526020600020905b81548152906001019060200180831161151357829003601f168201915b5050505050905060006115416119cf565b90506000815103611556578192505050611599565b60008251111561158b578082604051602001611573929190613251565b60405160208183030381529060405292505050611599565b611594846119e6565b925050505b919050565b60007f80ac58cd000000000000000000000000000000000000000000000000000000007bffffffffffffffffffffffffffffffffffffffffffffffffffffffff1916827bffffffffffffffffffffffffffffffffffffffffffffffffffffffff1916148061166957507f5b5e139f000000000000000000000000000000000000000000000000000000007bffffffffffffffffffffffffffffffffffffffffffffffffffffffff1916827bffffffffffffffffffffffffffffffffffffffffffffffffffffffff1916145b80611679575061167882611a4e565b5b9050919050565b60008073ffffffffffffffffffffffffffffffffffffffff166116a283611055565b73ffffffffffffffffffffffffffffffffffffffff1614159050919050565b60018111156117e157600073ffffffffffffffffffffffffffffffffffffffff168473ffffffffffffffffffffffffffffffffffffffff16146117555780600560008673ffffffffffffffffffffffffffffffffffffffff1673ffffffffffffffffffffffffffffffffffffffff168152602001908152602001600020600082825461174d9190613275565b925050819055505b600073ffffffffffffffffffffffffffffffffffffffff168373ffffffffffffffffffffffffffffffffffffffff16146117e05780600560008573ffffffffffffffffffffffffffffffffffffffff1673ffffffffffffffffffffffffffffffffffffffff16815260200190815260200160002060008282546117d891906132a9565b925050819055505b5b50505050565b50505050565b6117f78383611ac8565b6118046000848484611848565b611843576040517f08c379a000000000000000000000000000000000000000000000000000000000815260040161183a906131f5565b60405180910390fd5b505050565b60006118698473ffffffffffffffffffffffffffffffffffffffff16611ce5565b156119c2578373ffffffffffffffffffffffffffffffffffffffff1663150b7a02611892610bfc565b8786866040518563ffffffff1660e01b81526004016118b49493929190613332565b6020604051808303816000875af19250505080156118f057506040513d601f19601f820116820180604052508101906118ed9190613393565b60015b611972573d8060008114611920576040519150601f19603f3d011682016040523d82523d6000602084013e611925565b606091505b50600081510361196a576040517f08c379a0000000000000000000000000000000000000000000000000000000008152600401611961906131f5565b60405180910390fd5b805181602001fd5b63150b7a0260e01b7bffffffffffffffffffffffffffffffffffffffffffffffffffffffff1916817bffffffffffffffffffffffffffffffffffffffffffffffffffffffff1916149150506119c7565b600190505b949350505050565b606060405180602001604052806000815250905090565b60606119f182610bb1565b60006119fb6119cf565b90506000815111611a1b5760405180602001604052806000815250611a46565b80611a2584611d08565b604051602001611a36929190613251565b6040516020818303038152906040525b915050919050565b60007f2a55205a000000000000000000000000000000000000000000000000000000007bffffffffffffffffffffffffffffffffffffffffffffffffffffffff1916827bffffffffffffffffffffffffffffffffffffffffffffffffffffffff19161480611ac15750611ac082611dd6565b5b9050919050565b600073ffffffffffffffffffffffffffffffffffffffff168273ffffffffffffffffffffffffffffffffffffffff1603611b37576040517f08c379a0000000000000000000000000000000000000000000000000000000008152600401611b2e9061340c565b60405180910390fd5b611b4081611680565b15611b80576040517f08c379a0000000000000000000000000000000000000000000000000000000008152600401611b7790613478565b60405180910390fd5b611b8e6000838360016116c1565b611b9781611680565b15611bd7576040517f08c379a0000000000000000000000000000000000000000000000000000000008152600401611bce90613478565b60405180910390fd5b6001600560008473ffffffffffffffffffffffffffffffffffffffff1673ffffffffffffffffffffffffffffffffffffffff16815260200190815260200160002060008282540192505081905550816004600083815260200190815260200160002060006101000a81548173ffffffffffffffffffffffffffffffffffffffff021916908373ffffffffffffffffffffffffffffffffffffffff160217905550808273ffffffffffffffffffffffffffffffffffffffff16600073ffffffffffffffffffffffffffffffffffffffff167fddf252ad1be2c89b69c2b068fc378daa952ba7f163c4a11628f55a4df523b3ef60405160405180910390a4611ce16000838360016117e7565b5050565b6000808273ffffffffffffffffffffffffffffffffffffffff163b119050919050565b606060006001611d1784611e40565b01905060008167ffffffffffffffff811115611d3657611d3561235c565b5b6040519080825280601f01601f191660200182016040528015611d685781602001600182028036833780820191505090505b509050600082602001820190505b600115611dcb578080600190039150507f3031323334353637383961626364656600000000000000000000000000000000600a86061a8153600a8581611dbf57611dbe612991565b5b04945060008503611d76575b819350505050919050565b60007f01ffc9a7000000000000000000000000000000000000000000000000000000007bffffffffffffffffffffffffffffffffffffffffffffffffffffffff1916827bffffffffffffffffffffffffffffffffffffffffffffffffffffffff1916149050919050565b600080600090507a184f03e93ff9f4daa797ed6e38ed64bf6a1f0100000000000000008310611e9e577a184f03e93ff9f4daa797ed6e38ed64bf6a1f0100000000000000008381611e9457611e93612991565b5b0492506040810190505b6d04ee2d6d415b85acef81000000008310611edb576d04ee2d6d415b85acef81000000008381611ed157611ed0612991565b5b0492506020810190505b662386f26fc100008310611f0a57662386f26fc100008381611f0057611eff612991565b5b0492506010810190505b6305f5e1008310611f33576305f5e1008381611f2957611f28612991565b5b0492506008810190505b6127108310611f58576127108381611f4e57611f4d612991565b5b0492506004810190505b60648310611f7b5760648381611f7157611f70612991565b5b0492506002810190505b600a8310611f8a576001810190505b80915050919050565b6000604051905090565b600080fd5b600080fd5b60007fffffffff0000000000000000000000000000000000000000000000000000000082169050919050565b611fdc81611fa7565b8114611fe757600080fd5b50565b600081359050611ff981611fd3565b92915050565b60006020828403121561201557612014611f9d565b5b600061202384828501611fea565b91505092915050565b60008115159050919050565b6120418161202c565b82525050565b600060208201905061205c6000830184612038565b92915050565b600081519050919050565b600082825260208201905092915050565b60005b8381101561209c578082015181840152602081019050612081565b60008484015250505050565b6000601f19601f8301169050919050565b60006120c482612062565b6120ce818561206d565b93506120de81856020860161207e565b6120e7816120a8565b840191505092915050565b6000602082019050818103600083015261210c81846120b9565b905092915050565b6000819050919050565b61212781612114565b811461213257600080fd5b50565b6000813590506121448161211e565b92915050565b6000602082840312156121605761215f611f9d565b5b600061216e84828501612135565b91505092915050565b600073ffffffffffffffffffffffffffffffffffffffff82169050919050565b60006121a282612177565b9050919050565b6121b281612197565b82525050565b60006020820190506121cd60008301846121a9565b92915050565b6121dc81612197565b81146121e757600080fd5b50565b6000813590506121f9816121d3565b92915050565b6000806040838503121561221657612215611f9d565b5b6000612224858286016121ea565b925050602061223585828601612135565b9150509250929050565b60008060006060848603121561225857612257611f9d565b5b6000612266868287016121ea565b9350506020612277868287016121ea565b925050604061228886828701612135565b9150509250925092565b600080604083850312156122a9576122a8611f9d565b5b60006122b785828601612135565b92505060206122c885828601612135565b9150509250929050565b6122db81612114565b82525050565b60006040820190506122f660008301856121a9565b61230360208301846122d2565b9392505050565b6000602082840312156123205761231f611f9d565b5b600061232e848285016121ea565b91505092915050565b600060208201905061234c60008301846122d2565b92915050565b600080fd5b600080fd5b7f4e487b7100000000000000000000000000000000000000000000000000000000600052604160045260246000fd5b612394826120a8565b810181811067ffffffffffffffff821117156123b3576123b261235c565b5b80604052505050565b60006123c6611f93565b90506123d2828261238b565b919050565b600067ffffffffffffffff8211156123f2576123f161235c565b5b6123fb826120a8565b9050602081019050919050565b82818337600083830152505050565b600061242a612425846123d7565b6123bc565b90508281526020810184848401111561244657612445612357565b5b612451848285612408565b509392505050565b600082601f83011261246e5761246d612352565b5b813561247e848260208601612417565b91505092915050565b60006bffffffffffffffffffffffff82169050919050565b6124a881612487565b81146124b357600080fd5b50565b6000813590506124c58161249f565b92915050565b6000806000606084860312156124e4576124e3611f9d565b5b60006124f2868287016121ea565b935050602084013567ffffffffffffffff81111561251357612512611fa2565b5b61251f86828701612459565b9250506040612530868287016124b6565b9150509250925092565b6125438161202c565b811461254e57600080fd5b50565b6000813590506125608161253a565b92915050565b6000806040838503121561257d5761257c611f9d565b5b600061258b858286016121ea565b925050602061259c85828601612551565b9150509250929050565b600067ffffffffffffffff8211156125c1576125c061235c565b5b6125ca826120a8565b9050602081019050919050565b60006125ea6125e5846125a6565b6123bc565b90508281526020810184848401111561260657612605612357565b5b612611848285612408565b509392505050565b600082601f83011261262e5761262d612352565b5b813561263e8482602086016125d7565b91505092915050565b6000806000806080858703121561266157612660611f9d565b5b600061266f878288016121ea565b9450506020612680878288016121ea565b935050604061269187828801612135565b925050606085013567ffffffffffffffff8111156126b2576126b1611fa2565b5b6126be87828801612619565b91505092959194509250565b600080604083850312156126e1576126e0611f9d565b5b60006126ef858286016121ea565b9250506020612700858286016121ea565b9150509250929050565b7f4e487b7100000000000000000000000000000000000000000000000000000000600052602260045260246000fd5b6000600282049050600182168061275157607f821691505b6020821081036127645761276361270a565b5b50919050565b7f4552433732313a20617070726f76616c20746f2063757272656e74206f776e6560008201527f7200000000000000000000000000000000000000000000000000000000000000602082015250565b60006127c660218361206d565b91506127d18261276a565b604082019050919050565b600060208201905081810360008301526127f5816127b9565b9050919050565b7f4552433732313a20617070726f76652063616c6c6572206973206e6f7420746f60008201527f6b656e206f776e6572206f7220617070726f76656420666f7220616c6c000000602082015250565b6000612858603d8361206d565b9150612863826127fc565b604082019050919050565b600060208201905081810360008301526128878161284b565b9050919050565b7f4552433732313a2063616c6c6572206973206e6f7420746f6b656e206f776e6560008201527f72206f7220617070726f76656400000000000000000000000000000000000000602082015250565b60006128ea602d8361206d565b91506128f58261288e565b604082019050919050565b60006020820190508181036000830152612919816128dd565b9050919050565b7f4e487b7100000000000000000000000000000000000000000000000000000000600052601160045260246000fd5b600061295a82612114565b915061296583612114565b925082820261297381612114565b9150828204841483151761298a57612989612920565b5b5092915050565b7f4e487b7100000000000000000000000000000000000000000000000000000000600052601260045260246000fd5b60006129cb82612114565b91506129d683612114565b9250826129e6576129e5612991565b5b828204905092915050565b7f4552433732313a20696e76616c696420746f6b656e2049440000000000000000600082015250565b6000612a2760188361206d565b9150612a32826129f1565b602082019050919050565b60006020820190508181036000830152612a5681612a1a565b9050919050565b7f4552433732313a2061646472657373207a65726f206973206e6f74206120766160008201527f6c6964206f776e65720000000000000000000000000000000000000000000000602082015250565b6000612ab960298361206d565b9150612ac482612a5d565b604082019050919050565b60006020820190508181036000830152612ae881612aac565b9050919050565b600081519050612afe8161253a565b92915050565b600060208284031215612b1a57612b19611f9d565b5b6000612b2884828501612aef565b91505092915050565b7f5f5f5f4f776e6572206d7573742062652061206d656d6265722e5f5f5f000000600082015250565b6000612b67601d8361206d565b9150612b7282612b31565b602082019050919050565b60006020820190508181036000830152612b9681612b5a565b9050919050565b6000612ba882612114565b91507fffffffffffffffffffffffffffffffffffffffffffffffffffffffffffffffff8203612bda57612bd9612920565b5b600182019050919050565b7f4552433732313a207472616e736665722066726f6d20696e636f72726563742060008201527f6f776e6572000000000000000000000000000000000000000000000000000000602082015250565b6000612c4160258361206d565b9150612c4c82612be5565b604082019050919050565b60006020820190508181036000830152612c7081612c34565b9050919050565b7f4552433732313a207472616e7366657220746f20746865207a65726f2061646460008201527f7265737300000000000000000000000000000000000000000000000000000000602082015250565b6000612cd360248361206d565b9150612cde82612c77565b604082019050919050565b60006020820190508181036000830152612d0281612cc6565b9050919050565b7f45524337323155524953746f726167653a2055524920736574206f66206e6f6e60008201527f6578697374656e7420746f6b656e000000000000000000000000000000000000602082015250565b6000612d65602e8361206d565b9150612d7082612d09565b604082019050919050565b60006020820190508181036000830152612d9481612d58565b9050919050565b60008190508160005260206000209050919050565b60006020601f8301049050919050565b600082821b905092915050565b600060088302612dfd7fffffffffffffffffffffffffffffffffffffffffffffffffffffffffffffffff82612dc0565b612e078683612dc0565b95508019841693508086168417925050509392505050565b6000819050919050565b6000612e44612e3f612e3a84612114565b612e1f565b612114565b9050919050565b6000819050919050565b612e5e83612e29565b612e72612e6a82612e4b565b848454612dcd565b825550505050565b600090565b612e87612e7a565b612e92818484612e55565b505050565b5b81811015612eb657612eab600082612e7f565b600181019050612e98565b5050565b601f821115612efb57612ecc81612d9b565b612ed584612db0565b81016020851015612ee4578190505b612ef8612ef085612db0565b830182612e97565b50505b505050565b600082821c905092915050565b6000612f1e60001984600802612f00565b1980831691505092915050565b6000612f378383612f0d565b9150826002028217905092915050565b612f5082612062565b67ffffffffffffffff811115612f6957612f6861235c565b5b612f738254612739565b612f7e828285612eba565b600060209050601f831160018114612fb15760008415612f9f578287015190505b612fa98582612f2b565b865550613011565b601f198416612fbf86612d9b565b60005b82811015612fe757848901518255600182019150602085019450602081019050612fc2565b868310156130045784890151613000601f891682612f0d565b8355505b6001600288020188555050505b505050505050565b7f455243323938313a20726f79616c7479206665652077696c6c2065786365656460008201527f2073616c65507269636500000000000000000000000000000000000000000000602082015250565b6000613075602a8361206d565b915061308082613019565b604082019050919050565b600060208201905081810360008301526130a481613068565b9050919050565b7f455243323938313a20496e76616c696420706172616d65746572730000000000600082015250565b60006130e1601b8361206d565b91506130ec826130ab565b602082019050919050565b60006020820190508181036000830152613110816130d4565b9050919050565b7f4552433732313a20617070726f766520746f2063616c6c657200000000000000600082015250565b600061314d60198361206d565b915061315882613117565b602082019050919050565b6000602082019050818103600083015261317c81613140565b9050919050565b7f4552433732313a207472616e7366657220746f206e6f6e20455243373231526560008201527f63656976657220696d706c656d656e7465720000000000000000000000000000602082015250565b60006131df60328361206d565b91506131ea82613183565b604082019050919050565b6000602082019050818103600083015261320e816131d2565b9050919050565b600081905092915050565b600061322b82612062565b6132358185613215565b935061324581856020860161207e565b80840191505092915050565b600061325d8285613220565b91506132698284613220565b91508190509392505050565b600061328082612114565b915061328b83612114565b92508282039050818111156132a3576132a2612920565b5b92915050565b60006132b482612114565b91506132bf83612114565b92508282019050808211156132d7576132d6612920565b5b92915050565b600081519050919050565b600082825260208201905092915050565b6000613304826132dd565b61330e81856132e8565b935061331e81856020860161207e565b613327816120a8565b840191505092915050565b600060808201905061334760008301876121a9565b61335460208301866121a9565b61336160408301856122d2565b818103606083015261337381846132f9565b905095945050505050565b60008151905061338d81611fd3565b92915050565b6000602082840312156133a9576133a8611f9d565b5b60006133b78482850161337e565b91505092915050565b7f4552433732313a206d696e7420746f20746865207a65726f2061646472657373600082015250565b60006133f660208361206d565b9150613401826133c0565b602082019050919050565b60006020820190508181036000830152613425816133e9565b9050919050565b7f4552433732313a20746f6b656e20616c7265616479206d696e74656400000000600082015250565b6000613462601c8361206d565b915061346d8261342c565b602082019050919050565b6000602082019050818103600083015261349181613455565b905091905056fea264697066735822122033af76305823c0e7647cfcf3db9d50775f741ab3d43754f9f2fa86232a160e0e64736f6c63430008110033",
  "immutableReferences": {},
  "source": "// SPDX-License-Identifier: MIT\npragma solidity ^0.8.17;\n\nimport \"@openzeppelin/contracts/token/ERC721/extensions/ERC721URIStorage.sol\";\nimport \"@openzeppelin/contracts/token/ERC721/extensions/ERC721Royalty.sol\";\n\nimport \"./Troca.sol\";\n\ncontract NFT is ERC721URIStorage, ERC721Royalty {\n    uint256 private tokenId  = 0;\n\n    constructor() ERC721(\"Troca Club\", \"TRC\") {}\n\n    function _burn(uint256 _tokenId) internal override(ERC721URIStorage, ERC721Royalty) {\n        super._burn(_tokenId);\n    }\n\n    function supportsInterface(bytes4 _interfaceId) public view override(ERC721, ERC721Royalty) returns (bool)\n    {\n        return super.supportsInterface(_interfaceId);\n    }\n\n    function tokenURI(uint256 _tokenId) public view override(ERC721, ERC721URIStorage) returns (string memory)\n    {\n        return super.tokenURI(_tokenId);\n    }\n   \n    function mint (address _troca, string memory _tokenURI, uint96 _royalty) external returns (uint256) {\n        require(Troca(_troca).members(msg.sender), \"___Owner must be a member.___\");\n        \n        tokenId ++;\n        _safeMint(msg.sender, tokenId);\n        _setTokenURI(tokenId, _tokenURI);\n        _setTokenRoyalty(tokenId, msg.sender, _royalty);\n\n        return tokenId;\n    }\n}\n",
  "sourcePath": "/Users/mnavapena/Documents/coding/blockchain/troca/smartContracts/contracts/NFT.sol",
  "compiler": {
    "name": "solc",
    "version": "0.8.17+commit.8df45f5f.Emscripten.clang"
  },
  "schemaVersion": "3.4.11",
  "updatedAt": "2023-02-10T01:57:36.506Z",
  "networkType": "ethereum",
  "devdoc": {
    "kind": "dev",
    "methods": {
      "approve(address,uint256)": {
        "details": "See {IERC721-approve}."
      },
      "balanceOf(address)": {
        "details": "See {IERC721-balanceOf}."
      },
      "getApproved(uint256)": {
        "details": "See {IERC721-getApproved}."
      },
      "isApprovedForAll(address,address)": {
        "details": "See {IERC721-isApprovedForAll}."
      },
      "name()": {
        "details": "See {IERC721Metadata-name}."
      },
      "ownerOf(uint256)": {
        "details": "See {IERC721-ownerOf}."
      },
      "royaltyInfo(uint256,uint256)": {
        "details": "Returns how much royalty is owed and to whom, based on a sale price that may be denominated in any unit of exchange. The royalty amount is denominated and should be paid in that same unit of exchange."
      },
      "safeTransferFrom(address,address,uint256)": {
        "details": "See {IERC721-safeTransferFrom}."
      },
      "safeTransferFrom(address,address,uint256,bytes)": {
        "details": "See {IERC721-safeTransferFrom}."
      },
      "setApprovalForAll(address,bool)": {
        "details": "See {IERC721-setApprovalForAll}."
      },
      "symbol()": {
        "details": "See {IERC721Metadata-symbol}."
      },
      "transferFrom(address,address,uint256)": {
        "details": "See {IERC721-transferFrom}."
      }
    },
    "version": 1
  },
  "userdoc": {
    "kind": "user",
    "methods": {},
    "version": 1
  }
}