{
  "contractName": "Troca",
  "abi": [
    {
      "inputs": [
        {
          "internalType": "address",
          "name": "_ownerAccount",
          "type": "address"
        }
      ],
      "stateMutability": "nonpayable",
      "type": "constructor"
    },
    {
      "anonymous": false,
      "inputs": [
        {
          "indexed": false,
          "internalType": "address",
          "name": "buyer",
          "type": "address"
        },
        {
          "indexed": false,
          "internalType": "address",
          "name": "seller",
          "type": "address"
        },
        {
          "indexed": false,
          "internalType": "uint256",
          "name": "tokenId",
          "type": "uint256"
        }
      ],
      "name": "BuyToken",
      "type": "event"
    },
    {
      "anonymous": false,
      "inputs": [
        {
          "indexed": false,
          "internalType": "address",
          "name": "newMember",
          "type": "address"
        }
      ],
      "name": "Subscription",
      "type": "event"
    },
    {
      "anonymous": false,
      "inputs": [
        {
          "indexed": false,
          "internalType": "address",
          "name": "buyer",
          "type": "address"
        },
        {
          "indexed": false,
          "internalType": "address",
          "name": "seller",
          "type": "address"
        },
        {
          "indexed": false,
          "internalType": "uint256",
          "name": "buyerTokenId",
          "type": "uint256"
        },
        {
          "indexed": false,
          "internalType": "uint256",
          "name": "sellerTokenId",
          "type": "uint256"
        }
      ],
      "name": "SwitchToken",
      "type": "event"
    },
    {
      "inputs": [
        {
          "internalType": "address",
          "name": "",
          "type": "address"
        }
      ],
      "name": "members",
      "outputs": [
        {
          "internalType": "bool",
          "name": "",
          "type": "bool"
        }
      ],
      "stateMutability": "view",
      "type": "function",
      "constant": true
    },
    {
      "inputs": [],
      "name": "ownerAccount",
      "outputs": [
        {
          "internalType": "address payable",
          "name": "",
          "type": "address"
        }
      ],
      "stateMutability": "view",
      "type": "function",
      "constant": true
    },
    {
      "inputs": [],
      "name": "subscribe",
      "outputs": [],
      "stateMutability": "payable",
      "type": "function",
      "payable": true
    },
    {
      "inputs": [
        {
          "internalType": "address",
          "name": "_nft",
          "type": "address"
        },
        {
          "internalType": "address",
          "name": "_nftOwner",
          "type": "address"
        },
        {
          "internalType": "uint256",
          "name": "_tokenId",
          "type": "uint256"
        }
      ],
      "name": "buyToken",
      "outputs": [],
      "stateMutability": "payable",
      "type": "function",
      "payable": true
    },
    {
      "inputs": [
        {
          "internalType": "address",
          "name": "_nft",
          "type": "address"
        },
        {
          "internalType": "address",
          "name": "_seller",
          "type": "address"
        },
        {
          "internalType": "uint256",
          "name": "_sellerTokenId",
          "type": "uint256"
        },
        {
          "internalType": "uint256",
          "name": "_buyerTokenId",
          "type": "uint256"
        }
      ],
      "name": "switchToken",
      "outputs": [],
      "stateMutability": "payable",
      "type": "function",
      "payable": true
    }
  ],
  "bytecode": "0x60c06040523480156200001157600080fd5b506040516200112738038062001127833981810160405281019062000037919062000146565b60016000819055508073ffffffffffffffffffffffffffffffffffffffff1660808173ffffffffffffffffffffffffffffffffffffffff1681525050600180600060805173ffffffffffffffffffffffffffffffffffffffff1673ffffffffffffffffffffffffffffffffffffffff16815260200190815260200160002060006101000a81548160ff021916908315150217905550600260a081815250505062000178565b600080fd5b600073ffffffffffffffffffffffffffffffffffffffff82169050919050565b60006200010e82620000e1565b9050919050565b620001208162000101565b81146200012c57600080fd5b50565b600081519050620001408162000115565b92915050565b6000602082840312156200015f576200015e620000dc565b5b60006200016f848285016200012f565b91505092915050565b60805160a051610f74620001b3600039600061084a0152600081816101eb0152818161046b015281816106a801526107c10152610f746000f3fe60806040526004361061004a5760003560e01c806308ae4b0c1461004f5780638f449a051461008c578063a415665e14610096578063c1d5725f146100b2578063ea47cb24146100ce575b600080fd5b34801561005b57600080fd5b50610076600480360381019061007191906108ea565b6100f9565b6040516100839190610932565b60405180910390f35b610094610119565b005b6100b060048036038101906100ab9190610983565b6102e0565b005b6100cc60048036038101906100c791906109ea565b6105f5565b005b3480156100da57600080fd5b506100e36107bf565b6040516100f09190610a5e565b60405180910390f35b60016020528060005260406000206000915054906101000a900460ff1681565b6000341161015c576040517f08c379a000000000000000000000000000000000000000000000000000000000815260040161015390610afc565b60405180910390fd5b600160003373ffffffffffffffffffffffffffffffffffffffff1673ffffffffffffffffffffffffffffffffffffffff16815260200190815260200160002060009054906101000a900460ff16156101e9576040517f08c379a00000000000000000000000000000000000000000000000000000000081526004016101e090610b68565b60405180910390fd5b7f000000000000000000000000000000000000000000000000000000000000000073ffffffffffffffffffffffffffffffffffffffff166108fc349081150290604051600060405180830381858888f1935050505015801561024f573d6000803e3d6000fd5b5060018060003373ffffffffffffffffffffffffffffffffffffffff1673ffffffffffffffffffffffffffffffffffffffff16815260200190815260200160002060006101000a81548160ff0219169083151502179055507fa6610d70b57486ac216657a87c0fce7f41758dd77d526daf7974f813a9b2a46a336040516102d69190610b97565b60405180910390a1565b60008211610323576040517f08c379a000000000000000000000000000000000000000000000000000000000815260040161031a90610c24565b60405180910390fd5b60008111610366576040517f08c379a000000000000000000000000000000000000000000000000000000000815260040161035d90610cb6565b60405180910390fd5b600160003373ffffffffffffffffffffffffffffffffffffffff1673ffffffffffffffffffffffffffffffffffffffff16815260200190815260200160002060009054906101000a900460ff166103f2576040517f08c379a00000000000000000000000000000000000000000000000000000000081526004016103e990610d22565b60405180910390fd5b60003411156104d457600061040734856107e3565b9050600081346104179190610d71565b90508473ffffffffffffffffffffffffffffffffffffffff166108fc829081150290604051600060405180830381858888f1935050505015801561045f573d6000803e3d6000fd5b5060008211156104d1577f000000000000000000000000000000000000000000000000000000000000000073ffffffffffffffffffffffffffffffffffffffff166108fc839081150290604051600060405180830381858888f193505050501580156104cf573d6000803e3d6000fd5b505b50505b8373ffffffffffffffffffffffffffffffffffffffff166342842e0e8433856040518463ffffffff1660e01b815260040161051193929190610db4565b600060405180830381600087803b15801561052b57600080fd5b505af115801561053f573d6000803e3d6000fd5b505050508373ffffffffffffffffffffffffffffffffffffffff166342842e0e3385846040518463ffffffff1660e01b815260040161058093929190610db4565b600060405180830381600087803b15801561059a57600080fd5b505af11580156105ae573d6000803e3d6000fd5b505050507fd46fb5e750030c8ef91d6a1bd64b2d408e12e8cb25b4421131d9a9715882346a338483856040516105e79493929190610deb565b60405180910390a150505050565b60008111610638576040517f08c379a000000000000000000000000000000000000000000000000000000000815260040161062f90610e7c565b60405180910390fd5b600061064434846107e3565b9050600081346106549190610d71565b90508373ffffffffffffffffffffffffffffffffffffffff166108fc829081150290604051600060405180830381858888f1935050505015801561069c573d6000803e3d6000fd5b50600082111561070e577f000000000000000000000000000000000000000000000000000000000000000073ffffffffffffffffffffffffffffffffffffffff166108fc839081150290604051600060405180830381858888f1935050505015801561070c573d6000803e3d6000fd5b505b8473ffffffffffffffffffffffffffffffffffffffff166342842e0e8533866040518463ffffffff1660e01b815260040161074b93929190610db4565b600060405180830381600087803b15801561076557600080fd5b505af1158015610779573d6000803e3d6000fd5b505050507fa5ff468a42a1c7f5a78dd6683a9722f1ef3c388d590959bbd7a6d2c837fcab073385856040516107b093929190610db4565b60405180910390a15050505050565b7f000000000000000000000000000000000000000000000000000000000000000081565b600060011515600160008473ffffffffffffffffffffffffffffffffffffffff1673ffffffffffffffffffffffffffffffffffffffff16815260200190815260200160002060009054906101000a900460ff161515036108465760009050610881565b60647f0000000000000000000000000000000000000000000000000000000000000000846108749190610e9c565b61087e9190610f0d565b90505b92915050565b600080fd5b600073ffffffffffffffffffffffffffffffffffffffff82169050919050565b60006108b78261088c565b9050919050565b6108c7816108ac565b81146108d257600080fd5b50565b6000813590506108e4816108be565b92915050565b600060208284031215610900576108ff610887565b5b600061090e848285016108d5565b91505092915050565b60008115159050919050565b61092c81610917565b82525050565b60006020820190506109476000830184610923565b92915050565b6000819050919050565b6109608161094d565b811461096b57600080fd5b50565b60008135905061097d81610957565b92915050565b6000806000806080858703121561099d5761099c610887565b5b60006109ab878288016108d5565b94505060206109bc878288016108d5565b93505060406109cd8782880161096e565b92505060606109de8782880161096e565b91505092959194509250565b600080600060608486031215610a0357610a02610887565b5b6000610a11868287016108d5565b9350506020610a22868287016108d5565b9250506040610a338682870161096e565b9150509250925092565b6000610a488261088c565b9050919050565b610a5881610a3d565b82525050565b6000602082019050610a736000830184610a4f565b92915050565b600082825260208201905092915050565b7f5f5f5f4d656d6265727368697020666565206973206d616e6461746f72792e5f60008201527f5f5f000000000000000000000000000000000000000000000000000000000000602082015250565b6000610ae6602283610a79565b9150610af182610a8a565b604082019050919050565b60006020820190508181036000830152610b1581610ad9565b9050919050565b7f5f5f5f596f752061726520616c72656164792061206d656d6265722e5f5f5f00600082015250565b6000610b52601f83610a79565b9150610b5d82610b1c565b602082019050919050565b60006020820190508181036000830152610b8181610b45565b9050919050565b610b91816108ac565b82525050565b6000602082019050610bac6000830184610b88565b92915050565b7f5f5f5f53656c6c657220546f6b656e204964206973206d616e6461746f72792e60008201527f5f5f5f0000000000000000000000000000000000000000000000000000000000602082015250565b6000610c0e602383610a79565b9150610c1982610bb2565b604082019050919050565b60006020820190508181036000830152610c3d81610c01565b9050919050565b7f5f5f5f427579657220546f6b656e204964206973206d616e6461746f72792e5f60008201527f5f5f000000000000000000000000000000000000000000000000000000000000602082015250565b6000610ca0602283610a79565b9150610cab82610c44565b604082019050919050565b60006020820190508181036000830152610ccf81610c93565b9050919050565b7f5f5f5f4275796572206d7573742062652061206d656d6265722e5f5f5f000000600082015250565b6000610d0c601d83610a79565b9150610d1782610cd6565b602082019050919050565b60006020820190508181036000830152610d3b81610cff565b9050919050565b7f4e487b7100000000000000000000000000000000000000000000000000000000600052601160045260246000fd5b6000610d7c8261094d565b9150610d878361094d565b9250828203905081811115610d9f57610d9e610d42565b5b92915050565b610dae8161094d565b82525050565b6000606082019050610dc96000830186610b88565b610dd66020830185610b88565b610de36040830184610da5565b949350505050565b6000608082019050610e006000830187610b88565b610e0d6020830186610b88565b610e1a6040830185610da5565b610e276060830184610da5565b95945050505050565b7f5f5f5f546f6b656e206964206973206d616e6461746f72792e5f5f5f00000000600082015250565b6000610e66601c83610a79565b9150610e7182610e30565b602082019050919050565b60006020820190508181036000830152610e9581610e59565b9050919050565b6000610ea78261094d565b9150610eb28361094d565b9250828202610ec08161094d565b91508282048414831517610ed757610ed6610d42565b5b5092915050565b7f4e487b7100000000000000000000000000000000000000000000000000000000600052601260045260246000fd5b6000610f188261094d565b9150610f238361094d565b925082610f3357610f32610ede565b5b82820490509291505056fea2646970667358221220ae4a1f67cf2aa86dcb11f4269857f5ba621830ae255f1d9262313e8237201e4d64736f6c63430008110033",
  "immutableReferences": {
    "3011": [
      {
        "length": 32,
        "start": 491
      },
      {
        "length": 32,
        "start": 1131
      },
      {
        "length": 32,
        "start": 1704
      },
      {
        "length": 32,
        "start": 1985
      }
    ],
    "3017": [
      {
        "length": 32,
        "start": 2122
      }
    ]
  },
  "source": "// SPDX-License-Identifier: MIT\npragma solidity ^0.8.17;\n\nimport \"@openzeppelin/contracts/security/ReentrancyGuard.sol\";\nimport \"./NFT.sol\";\n\ncontract Troca is ReentrancyGuard {\n    address payable public immutable ownerAccount;\n    mapping(address => bool) public members;\n    uint private immutable feePercent;\n\n    /**EVENTS */\n    event Subscription(\n        address newMember\n    );\n\n    event BuyToken(\n        address buyer,\n        address seller,\n        uint256 tokenId\n    );\n\n    event SwitchToken(\n        address buyer,\n        address seller,\n        uint256 buyerTokenId,\n        uint256 sellerTokenId\n    );\n    \n    constructor(address _ownerAccount) {\n        ownerAccount = payable(_ownerAccount);\n        members[ownerAccount] = true;\n        feePercent = 2;\n    }\n\n    function subscribe () payable external {\n        require(msg.value > 0, \"___Membership fee is mandatory.___\");\n        require(!members[msg.sender], \"___You are already a member.___\");\n        \n        ownerAccount.transfer(msg.value);\n        members[msg.sender] = true;\n        \n        emit Subscription(msg.sender);\n    }\n\n    function buyToken (address _nft, address _nftOwner, uint256 _tokenId) payable external {\n        require(_tokenId > 0, \"___Token id is mandatory.___\");\n        \n        uint256 fee = _calculateFee(msg.value, _nftOwner);\n        uint256 price = msg.value - fee;\n\n        payable(_nftOwner).transfer(price);\n\n        if(fee > 0) {\n            ownerAccount.transfer(fee);\n        }        \n\n        NFT(_nft).safeTransferFrom(_nftOwner, msg.sender, _tokenId);\n\n        emit BuyToken(msg.sender, _nftOwner, _tokenId);\n    }\n\n    function switchToken (address _nft, address _seller, uint256 _sellerTokenId, uint256 _buyerTokenId) payable external {\n        require(_sellerTokenId > 0, \"___Seller Token Id is mandatory.___\");\n        require(_buyerTokenId > 0, \"___Buyer Token Id is mandatory.___\");\n        require(members[msg.sender], \"___Buyer must be a member.___\");\n        \n        if(msg.value > 0) {\n            uint256 fee = _calculateFee(msg.value, _seller);\n            uint256 price = msg.value - fee;\n\n            payable(_seller).transfer(price);\n\n            if(fee > 0) {\n                ownerAccount.transfer(fee);\n            }  \n        }\n\n        NFT(_nft).safeTransferFrom(_seller, msg.sender, _sellerTokenId);\n        NFT(_nft).safeTransferFrom(msg.sender, _seller, _buyerTokenId);\n\n        emit SwitchToken(msg.sender, _seller, _buyerTokenId, _sellerTokenId);\n    }\n\n    function _calculateFee(uint256 _amount, address _account) private view returns (uint256) {\n        if(members[_account] == true) {\n            return 0;\n        } else {\n            return (_amount * feePercent / 100);\n        }        \n    }\n} \n",
  "sourcePath": "/Users/mnavapena/Documents/coding/blockchain/troca/smartContracts/contracts/Troca.sol",
  "compiler": {
    "name": "solc",
    "version": "0.8.17+commit.8df45f5f.Emscripten.clang"
  },
  "schemaVersion": "3.4.11",
  "updatedAt": "2023-12-27T02:25:01.721Z",
  "networkType": "ethereum",
  "devdoc": {
    "kind": "dev",
    "methods": {},
    "version": 1
  },
  "userdoc": {
    "events": {
      "Subscription(address)": {
        "notice": "EVENTS "
      }
    },
    "kind": "user",
    "methods": {},
    "version": 1
  }
}