{
  "contractName": "Troca",
  "abi": [
    {
      "inputs": [
        {
          "internalType": "address",
          "name": "_ownerAccount",
          "type": "address"
        }
      ],
      "stateMutability": "nonpayable",
      "type": "constructor"
    },
    {
      "anonymous": false,
      "inputs": [
        {
          "indexed": false,
          "internalType": "address",
          "name": "newMember",
          "type": "address"
        }
      ],
      "name": "Subscription",
      "type": "event"
    },
    {
      "inputs": [
        {
          "internalType": "address",
          "name": "",
          "type": "address"
        }
      ],
      "name": "members",
      "outputs": [
        {
          "internalType": "bool",
          "name": "",
          "type": "bool"
        }
      ],
      "stateMutability": "view",
      "type": "function",
      "constant": true
    },
    {
      "inputs": [],
      "name": "ownerAccount",
      "outputs": [
        {
          "internalType": "address payable",
          "name": "",
          "type": "address"
        }
      ],
      "stateMutability": "view",
      "type": "function",
      "constant": true
    },
    {
      "inputs": [],
      "name": "subscribe",
      "outputs": [],
      "stateMutability": "payable",
      "type": "function",
      "payable": true
    }
  ],
  "bytecode": "0x60a060405234801561001057600080fd5b5060405161061e38038061061e833981810160405281019061003291906100cf565b8073ffffffffffffffffffffffffffffffffffffffff1660808173ffffffffffffffffffffffffffffffffffffffff1681525050506100fc565b600080fd5b600073ffffffffffffffffffffffffffffffffffffffff82169050919050565b600061009c82610071565b9050919050565b6100ac81610091565b81146100b757600080fd5b50565b6000815190506100c9816100a3565b92915050565b6000602082840312156100e5576100e461006c565b5b60006100f3848285016100ba565b91505092915050565b60805161050061011e6000396000818161019c015261029301526105006000f3fe6080604052600436106100345760003560e01c806308ae4b0c146100395780638f449a0514610076578063ea47cb2414610080575b600080fd5b34801561004557600080fd5b50610060600480360381019061005b9190610318565b6100ab565b60405161006d9190610360565b60405180910390f35b61007e6100cb565b005b34801561008c57600080fd5b50610095610291565b6040516100a2919061039c565b60405180910390f35b60006020528060005260406000206000915054906101000a900460ff1681565b6000341161010e576040517f08c379a000000000000000000000000000000000000000000000000000000000815260040161010590610414565b60405180910390fd5b6000803373ffffffffffffffffffffffffffffffffffffffff1673ffffffffffffffffffffffffffffffffffffffff16815260200190815260200160002060009054906101000a900460ff161561019a576040517f08c379a000000000000000000000000000000000000000000000000000000000815260040161019190610480565b60405180910390fd5b7f000000000000000000000000000000000000000000000000000000000000000073ffffffffffffffffffffffffffffffffffffffff166108fc349081150290604051600060405180830381858888f19350505050158015610200573d6000803e3d6000fd5b5060016000803373ffffffffffffffffffffffffffffffffffffffff1673ffffffffffffffffffffffffffffffffffffffff16815260200190815260200160002060006101000a81548160ff0219169083151502179055507fa6610d70b57486ac216657a87c0fce7f41758dd77d526daf7974f813a9b2a46a3360405161028791906104af565b60405180910390a1565b7f000000000000000000000000000000000000000000000000000000000000000081565b600080fd5b600073ffffffffffffffffffffffffffffffffffffffff82169050919050565b60006102e5826102ba565b9050919050565b6102f5816102da565b811461030057600080fd5b50565b600081359050610312816102ec565b92915050565b60006020828403121561032e5761032d6102b5565b5b600061033c84828501610303565b91505092915050565b60008115159050919050565b61035a81610345565b82525050565b60006020820190506103756000830184610351565b92915050565b6000610386826102ba565b9050919050565b6103968161037b565b82525050565b60006020820190506103b1600083018461038d565b92915050565b600082825260208201905092915050565b7f4d656d6265727368697020666565206973206d616e6461746f72792e00000000600082015250565b60006103fe601c836103b7565b9150610409826103c8565b602082019050919050565b6000602082019050818103600083015261042d816103f1565b9050919050565b7f596f752061726520616c72656164792061206d656d6265722e00000000000000600082015250565b600061046a6019836103b7565b915061047582610434565b602082019050919050565b600060208201905081810360008301526104998161045d565b9050919050565b6104a9816102da565b82525050565b60006020820190506104c460008301846104a0565b9291505056fea2646970667358221220e0164144371e2de30004fe642ddcbac40804ecc2a7cf246d4305602c4bc6f1d264736f6c63430008110033",
  "immutableReferences": {
    "3071": [
      {
        "length": 32,
        "start": 412
      },
      {
        "length": 32,
        "start": 659
      }
    ]
  },
  "source": "// SPDX-License-Identifier: MIT\npragma solidity ^0.8.17;\n\n//import \"@openzeppelin/contracts/token/ERC721/IERC721.sol\";\n//import \"@openzeppelin/contracts/security/ReentrancyGuard.sol\";\n\n/*contract Troca is ReentrancyGuard {\n    \n}*/\n\ncontract Troca {\n    address payable public immutable ownerAccount;\n    mapping(address => bool) public members;\n\n    /**EVENTS */\n    event Subscription(\n        address newMember\n    );\n    \n    constructor(address _ownerAccount) {\n        ownerAccount = payable(_ownerAccount);\n    }\n\n    function subscribe () payable external {\n        require(msg.value > 0, \"Membership fee is mandatory.\");\n        require(!members[msg.sender], \"You are already a member.\");\n        \n        ownerAccount.transfer(msg.value);\n        members[msg.sender] = true;\n\n        emit Subscription(msg.sender);\n    }\n} \n",
  "sourcePath": "/Users/mnavapena/Documents/coding/blockchain/troca/smartContracts/contracts/Troca.sol",
  "compiler": {
    "name": "solc",
    "version": "0.8.17+commit.8df45f5f.Emscripten.clang"
  },
  "schemaVersion": "3.4.11",
  "updatedAt": "2023-01-28T16:23:52.022Z",
  "networkType": "ethereum",
  "devdoc": {
    "kind": "dev",
    "methods": {},
    "version": 1
  },
  "userdoc": {
    "events": {
      "Subscription(address)": {
        "notice": "EVENTS "
      }
    },
    "kind": "user",
    "methods": {},
    "version": 1
  }
}